S01700006C6162335F686973746F6772616D612E737265631D
S31500000000501AFE1FC92A000095260000C52A0000C6
S31500000010C52A0000C52A0000C52A0000000000000D
S31500000020000000000000000000000000C52A0000DB
S31500000030C52A000000000000C52A0000C52A0000ED
S31500000040FFFFFFFFFFFFFFFFFFFFFFFFFFFFFFFFBA
S31500000050FFFFFFFFFFFFFFFFFFFFFFFFFFFFFFFFAA
S31500000060FFFFFFFFFFFFFFFFFFFFFFFFFFFFFFFF9A
S31500000070FFFFFFFFFFFFFFFFFFFFFFFFFFFFFFFF8A
S31500000400FFFFFFFFFFFDFFFFFFFFFFFFFFFFFFFFF8
S31500000410FFFFFFFFFFFFFFFFFFFFFFFFFFFFFFFFE6
S31500000420FFFFFFFFFFFFFFFFFFFFFFFFFFFFFFFFD6
S31500000430FFFFFFFFFFFFFFFFFFFFFFFFFFFFFFFFC6
S31500000440FFFFFFFFFFFFFFFFFFFFFFFFFFFFFFFFB6
S31500000450FFFFFFFFFFFFFFFFFFFFFFFFFFFFFFFFA6
S31500000460FFFFFFFFFFFFFFFFFFFFFFFFFFFFFFFF96
S31500000470FFFFFFFFFFFFFFFFFFFFFFFFFFFFFFFF86
S31500000480FFFFFFFFFFFFFFFFFFFFFFFFFFFFFFFF76
S31500000490FFFFFFFFFFFFFFFFFFFFFFFFFFFFFFFF66
S315000004A0FFFFFFFFFFFFFFFFFFFFFFFFFFFFFFFF56
S315000004B0FFFFFFFFFFFFFFFFFFFFFFFFFFFFFFFF46
S315000004C0FFFFFFFFFFFFFFFFFFFFFFFFFFFFFFFF36
S315000004D0FFFFFFFFFFFFFFFFFFFFFFFFFFFFFFFF26
S315000004E0FFFFFFFFFFFFFFFFFFFFFFFFFFFFFFFF16
S315000004F0FFFFFFFFFFFFFFFFFFFFFFFFFFFFFFFF06
S3150000050020000000200001002F0000002F00010045
S315000005100C00010011000000300000003000010056
S31500000520240000002400010024000200240003002F
S31500000530240004002400050013000000170000003A
S315000005402300000021000000210001000700000038
S31500000550070001000700020007000300070004006F
S31500000560070005000700060007000700120000004C
S3150000057044000000080000000B00000041000000DD
S31500000580400000004000010004000000430000009D
S315000005902B0000002B000A002B000B002B000C0088
S315000005A02B000D002B0001002B0002002B00030086
S315000005B02B0004002B0005002B0006002B00070073
S315000005C02B0008002B0009000600000006000A00A8
S315000005D006000B0006000C0006000D0006000E00CB
S315000005E006000F00060001000600020006000300D8
S315000005F006000400060005000600060006000700C7
S31500000600060008000600090015000000150001009C
S3150000061015000200310000002A000000450000001D
S3150000062010000000030100000300000003000100A9
S315000006300F0000000D0000002D0000004200000029
S315000006402C0000002C0001002C0002002C000300EE
S31500000650320000002800000018000000140000000E
S31500000660140001001400020014000300140004002A
S31500000670140005001400060014000700140008000A
S3150000068014000900340000003400010016000000C8
S31500000690160001003500000036000000360001009B
S315000006A02200000033000000330100002900000092
S315000006B010B5054C237833B9044B13B10448AFF396
S315000006C000800123237010BD2001FE1F00000000E2
S315000006D05C3F000008B5034B1BB103490348AFF369
S315000006E0008008BD000000002401FE1F5C3F0000E2
S315000006F0114A136870B4040A9C4216D25668C0B2F6
S3150000070000F11005012356F8246003FA05F5354279
S315000007100BD069B100EB0410936853F82030C3F393
S31500000720400300200B7070BC7047032070BC7047FC
S31500000730184670BC704700BFE000FE1F084B1A68E1
S31500000740000A904207D241B1DA6843010432002020
S315000007509B580B807047032070470120704700BFED
S31500000760E000FE1F084B1A68000A904208D249B101
S31500000770DA684301043200209B581B0C0B8070473B
S315000007800320704701207047E000FE1F70B4134C31
S315000007902268030A93421BD26668C0B200F11005B4
S315000007A0012256F8236002FA05F5354210D091B1C0
S315000007B0E4685B01043402FA00F01C5983B233EAA0
S315000007C0144313BF002000200A70087070BC7047E5
S315000007D0032070BC7047104670BC7047E000FE1FD7
S315000007E00C4B10B41C68000AA0420ED26AB1DB683A
S315000007F05DF8044B083303EB401022EA01030A407C
S3150000080042EA034242600020704703205DF8044B31
S31500000810704700BFE000FE1F144A70B41468030A54
S31500000820A3421DD25668C0B200F11004012556F845
S31500000830236005FA04F4344212D0A94210D8D268D3
S3150000084002F1080202EB431305FA00F05D680AD0D4
S3150000085045EA0040000C0004586070BC0020704758
S31500000860032070BC7047284380B2F5E7E000FE1F06
S3150000087018B1034B0360002070470120704700BF8A
S3150000088007010301012920D870B4124C2368020A1B
S315000008909A4217D26668C0B200F11005012356F8D5
S315000008A0226003FA05F535420CD003FA00F083B254
S315000008B069B10020E168520108311843505070BCFC
S315000008C000207047032070BC704703207047000467
S315000008D00B46EFE7E000FE1F012957D82E4BF0B478
S315000008E01C68020AA2424ED25D68C0B200F1100630
S315000008F0012455F82250B4402C4244D000EB02109B
S315000009009C681D6954F82030002941D043F0040149
S31500000910224E0E40EFF31087012383F31088204BFD
S315000009201A8892B222B94FF0400CEA7085F803C0DB
S315000009301A88013292B21A8087F31088CF0354F8CE
S31500000940202007D5174F22F480320F4044F820208C
S3150000095044F8207044F82060EFF31081012282F3FE
S3150000096010881A8892B21AB11A88013A92B21A807D
S315000009701B889BB213B98022EB70EA7081F3108852
S315000009800020F0BC70470320F0BC7047032070477E
S3150000099023F00401BCE700BFE000FE1FD5FC011FE9
S315000009A03C01FE1FD5FC001FB2B10C4B10B41C68F5
S315000009B0000AA0420CD2DB6822EA01044001083397
S315000009C00A4042EA0442C2505DF8044B00207047D8
S315000009D003205DF8044B704703207047E000FE1FBC
S315000009E0D2B10E4B70B41C68000AA04211D2DD6869
S315000009F0400102EA01032E582C58334361EA0202F1
S31500000A009BB2210C1A4009040A432A50002070BCEC
S31500000A107047032070BC704703207047E000FE1F3C
S31500000A20F8B500283BD009681E4F4FF0000C01EBCB
S31500000A30C00066464FF0010E8D8840F20242954294
S31500000A404FF000030BD10C680EFA03F204F0B85411
S31500000A50D2B2B4F1807F0CBF164342EA0C0C0133CC
S31500000A60032B06D037F813209542ECD00133032B25
S31500000A70F8D108318142DFD16FEA0C0C5FFA8CF4B1
S31500000A80012001F0D1FF084B93F8BB241643264002
S31500000A9083F8BB640120BDE8F84001F095BF064627
S31500000AA0FF24EDE7A838000000E0014070B582B0F1
S31500000AB002AB002403F8044D054618460E4601F025
S31500000AC0C9FD9DF80430DB0715D5202D10D8012E61
S31500000AD00ED80A4B1B691A7813BF154302F0300271
S31500000AE022EA050505F0300520461D7002B070BDEE
S31500000AF0032002B070BD062002B070BDE000FE1FEC
S31500000B002DE9F0470746011D0088FFF789FF3B885E
S31500000B10002B4ED0DFF8A4E0274900224FF0010C4D
S31500000B204FF0400A4FF080097B68DEF8106053F8FA
S31500000B303250DEF8084003EBC2039B88180ADBB28A
S31500000B4003EB0013EFF310888CF31088088880B24B
S31500000B5010B9F07086F803A00888013080B20880CA
S31500000B6088F3108815F4803F54F8230007D020F44A
S31500000B70803025F4803844F8230044F8238044F874
S31500000B802350EFF310808CF310880B889BB21BB1B7
S31500000B900B88013B9BB20B800B889BB213B9F37099
S31500000BA086F8039080F3108801323B8892B2934214
S31500000BB0BAD80020BDE8F0873C01FE1FE000FE1F0A
S31500000BC018B143680BB1FFF79BBF0120704700BF08
S31500000BD000283AD04368002B37D02DE9F04186B083
S31500000BE006AD00230922019305F8142D184A194C65
S31500000BF0D2F80C8002930646CDE90333059302A989
S31500000C002846C047029BE3600A22BDF80C308DF8E7
S31500000C10042002A9059A6260284601272360C0477E
S31500000C20029B8DF80570284602A9A360C047736829
S31500000C30029A22612BB13046FFF762FF06B0BDE88B
S31500000C40F081384606B0BDE8F0810120704700BF4C
S31500000C5038390000E000FE1F2DE9F0412F4C2368D3
S31500000C604FEA1028984584B053D26268C5B205F1A0
S31500000C701003012752F8282007FA03F3134248D03D
S31500000C800E4604A902AA034641F80C2D3846ADF8D3
S31500000C900C300296ADF8007005EB0815FFF7C0FEA4
S31500000CA02169A068EFF3108487F310881C4B1A881B
S31500000CB092B212B94027CA70CF701A88013292B226
S31500000CC01A8084F31088F40350F8252007D522F4FF
S31500000CD0803226F4803440F8252040F8254040F83C
S31500000CE02560EFF31080012282F310881A8892B2F1
S31500000CF01AB11A88013A92B21A801B889BB213B9AC
S31500000D008022CB70CA7080F31088002004B0BDE842
S31500000D10F081032004B0BDE8F08100BFE000FE1FB3
S31500000D203C01FE1F70B1084A084B12689A4207D16F
S31500000D30074B1B685A6803EB820303600020704769
S31500000D401220704701207047F400FE1F494D4600EF
S31500000D509CB17F4020B1034B1B68036000207047A5
S31500000D60012070475039000008B5154B196889B144
S31500000D7003F57F70002201E053F8041F83420A4402
S31500000D80FAD13AB90F4B19680B0CB3F5807F04D032
S31500000D9000BEFDE700BE00BEFCE70B68013B033367
S31500000DA007D824310422084801F09CFF20B100BE78
S31500000DB0FDE700BE00BEFCE7044B054A1A6008BD0D
S31500000DC0303A00009CB17F40543A0000F400FE1F08
S31500000DD0494D4600A8B10C4A0C4B12689A420ED1F6
S31500000DE00B4B1B685A6800F1100103EB820353F8A2
S31500000DF0042F40F8042B8142F9D1002070471220BD
S31500000E0070470120704700BFF400FE1F494D4600A1
S31500000E109CB17F4040B13AB1F0B51B4C1B4B2468E6
S31500000E209C4203D01220F0BD01207047184B1E686B
S31500000E301EB3184B07781B68002404E00134B44243
S31500000E4003F1080319D09D79BD42F7D193F805C087
S31500000E504588B5EB9C0FF1D1DD7990F801C005F01E
S31500000E60070EE645EAD1B1EBD50FE7D19B881470A2
S31500000E70C3F3090353800020F0BDDF21FF23117067
S31500000E8053800B20F0BD00BFF400FE1F494D460005
S31500000E907401FE1F883E000038B131B18A4A8B4B7F
S31500000EA012689A4203D012207047012070472DE93C
S31500000EB0F041874D0278AC6805EB8404A3789A422A
S31500000EC064D24FEA121C04EB8C0702F00F06B7F847
S31500000ED0088028FA06FE1EF0010F57D0072EBF7AAB
S31500000EE00AD904EB8C0C02F007069CF80B2002F0E2
S31500000EF00F0217444FEA1828DFF8DCC1754A1CF8C0
S31500000F00066006EA08061B09925D02333A449B0016
S31500000F1003EB4203E618E25A96F90160C2F30902AE
S31500000F20002E05EB820308DB002B2FD04678002E1F
S31500000F304BD040F27950BDE8F08115F82220457873
S31500000F405208DDB14FF0020C012604271C78E40795
S31500000F5005F1FF35EDD5052A0CD8DFE802F0342D72
S31500000F60221C1A039A78D41C1CFB026202EB940220
S31500000F7003EB82031A785208002DE7D1042A00F207
S31500000F80A080DFE802F06262624F3B004FF4AF6080
S31500000F90D1E70833EEE79A7817FB026203EB820388
S31500000FA0E8E71C799A7812FB04F20332033402EB69
S31500000FB0940203EB8203DDE71A79033202F4FE7230
S31500000FC00C321344D6E70C33D4E7DF784088D4F8E4
S31500000FD004C03E46C6F30304C7F3031701264F7247
S31500000FE08C728E8000284FD135F822209B78CB80DA
S31500000FF00CEB02220A600872C8609CE7D8785C781D
S315000010005D680D6000230246C2F30302C0F30310BD
S315000010108B800B72CB60A307CC8048728A7288D50E
S31500001020002088E7D8785C789D78CC800246C0F3AB
S315000010300310C2F3030204330424487200208A72A8
S315000010408D80CB600C72086075E7DD781E7940886C
S315000010502C46C5F303154D72B5B2C4F3030485429D
S315000010608C728D8010D9DC889D68012A00FB04549F
S315000010700C601DD0022A0AD0B3F80130CB800022C2
S315000010800A72CA60002BCBD140F27A5053E79C78A3
S31500001090033600FB04F202EB96061844F21C03EB3F
S315000010A08203027BCA80CB600C72002AB8D1EBE7C0
S315000010B018440023027BCA800B72CB60002AAFD192
S315000010C0E2E7642037E700BFF400FE1F494D460003
S315000010D0303A0000B038000030390000034B0430CD
S315000010E01B6823F820100020704700BF4001FE1F38
S315000010F0034B021D1B68002023F82200704700BF27
S315000011004001FE1F034B1A68137843F080031370E7
S31500001110002070474001FE1F034B1A6813786FF3D7
S31500001120C7131370002070474001FE1F20B1034B08
S315000011301B6803600020704701207047703900006B
S3150000114060B1012808D1094B1B68002040214122CB
S31500001150187119711A71704701207047034B1B688B
S3150000116040214122987099709A7070474001FE1F85
S31500001170F0B587B0002832D004461A4800230B2267
S31500001180CDE90133CDE90333059302A9C3688DF890
S31500001190042001A89847054610B1284607B0F0BDBF
S315000011A0114F029B3B6001A801F0B4FB606858B187
S315000011B0A3683E6803EB8000598813F8042B0432B9
S315000011C0834226F82210F7D12378002BE5D03A681F
S315000011D01378284643F08003137007B0F0BD01254D
S315000011E0DBE700BF383900004001FE1F06207047CC
S315000011F00620704720B1034B1B6803600020704730
S3150000120001207047E0390000324A136893F828102D
S3150000121001F03003102B0CD0202B02D00023936159
S31500001220704790F82B302C499B0931F8131059B9A7
S315000012307047038D10B403F00303284C34F81330C1
S3150000124003BB5DF8044B7047D2ED047A90F82B305F
S31500001250B8EE676A07EE901AF8EE676A03F01F03A6
S31500001260C6EE267A07EE103AB8EE477AF7EE006A2F
S3150000127037EE267A67EE877AFCEEE77A17EE903A33
S315000012809361704707EE903A4B06B8EE677A19D429
S31500001290032102EB8101D1ED016A038D5DF8044B58
S315000012A0F8EE666AC3F3052386EE876A013307EE16
S315000012B0903AFAEEEF7A67EE867AFCEEE77AC2EDBE
S315000012C0067A7047038D13F0100F0CBF032100211F
S315000012D0DFE700BFF800FE1FEC390000FC39000014
S315000012E0A9B1062810B430D0052812D0042834D06D
S315000012F020B3012841D0022837D0032845D1244CF9
S315000013000023E0690B60026A02F0070208E0012090
S3150000131070471F4C0023E0690B60026AC2F3027239
S3150000132090F8263003F0070304EB830300205B6884
S3150000133023FA02F20A605DF8044B7047144C086009
S31500001340E069026AC2F30232EAE7114C0023E0695F
S315000013500B60026AC2F30262E2E70D4C0023E06909
S315000013600B60026AC2F30242DAE7094C0023E06925
S315000013700B60026AC2F30212D2E7054C0023E06951
S315000013800B60026AC2F30222CAE70320D3E700BF5A
S31500001390F800FE1F38B50D784B788A78002465F37F
S315000013A00E3463F30A24CB780D7962F3061463F3E3
S315000013B002044A798B7965F3124462F31E7405467A
S315000013C063F31A64002001F02FFB2C620020BDE8B5
S315000013D0384001F0F9BA00BF10B5174BDC6994F834
S315000013E04120D0070CD51A6894F8263092F82820A8
S315000013F0510603F007030AD4052B0DD0032B0BD09F
S3150000140094F84130DB074FF0000008D410BD228D60
S31500001410D206F3D4052BF1D140F2971010BD01F09E
S3150000142003FB94F841306FF3000384F84130002049
S3150000143001F0CAFA002010BDF800FE1F38B5084BAF
S31500001440DC690546002001F0EFFA94F8303065F3C8
S31500001450000384F83030002001F0B6FA002038BDD1
S31500001460F800FE1F084B10B5DC69002001F0DCFA1D
S3150000147094F8523043F0010384F85230002001F012
S31500001480A3FA002010BD00BFF800FE1F084B10B5E0
S31500001490DC69002001F0C8FA94F852306FF30003BB
S315000014A084F85230002001F08FFA002010BD00BFF2
S315000014B0F800FE1F084B10B5DC69002001F0B4FAF5
S315000014C094F83E3043F0800384F83E30002001F06B
S315000014D07BFA002010BD00BFF800FE1F084B10B5B8
S315000014E0DC69002001F0A0FA94F83E306FF3C713D0
S315000014F084F83E30002001F067FA002010BD00BFDE
S31500001500F800FE1F084B10B5DC69002001F08CFACC
S3150000151094F8533043F0010384F85330002001F06F
S3150000152053FA002010BD00BFF800FE1F084B10B58F
S31500001530DC69002001F078FA94F853306FF3000369
S3150000154084F85330002001F03FFA002010BD00BFA0
S31500001550F800FE1F38B5084BDC690546002001F08F
S3150000156063FA94F8243065F3061384F824300020D7
S3150000157001F02AFA002038BDF800FE1F03788B42DE
S3150000158014D343788B4211D383788B420ED3C3781E
S315000015908B420BD343798B4208D30379994205D802
S315000015A0807981428CBF0520002070470520704756
S315000015B030B52DED028B83B0CDE90001A0B308EE66
S315000015C0901A08EE100A00F099FF07EE900AB8EE9E
S315000015D0677AF7EE006AC6EE877A194A194C1568DB
S315000015E00020106094F82330D9B2F8EE688AB8EE7D
S315000015F0488A67EEA88AC8EE287AFCEEE77A17EEE4
S31500001600903A013BB3F1807F13D2536001F0F001B1
S31500001610F025072384F823509060136084F8231084
S3150000162003B0BDEC028B30BD032003B0BDEC028BD2
S3150000163030BD1220156003B0BDEC028B30BD00BF7B
S3150000164010E000E000ED00E0052827D0144B042848
S3150000165070B5DC6903D194F88034DB071BD40546EA
S3150000166000200E4601F0E0F994F83E306FF3C71300
S3150000167084F83E3094F83E3066F3061384F83E3024
S3150000168094F83E3065F3020384F83E30002001F002
S315000016909BF9002070BD4FF4C87070BD03207047E1
S315000016A0F800FE1F30B583B0002953D0024600284B
S315000016B070D0414CE36993F8AA0010F0010063D1A1
S315000016C093F8A000196A2568C1F302318DF800105D
S315000016D0196AC1F302218DF80110196AC1F30211CA
S315000016E08DF80210196AC1F302018DF80310196A08
S315000016F0C1F302418DF80410196AC1F302718DF825
S3150000170005101B6AA968C3F3026300F003008DF895
S31500001710063009B1032840D0EB680BB1022844D04B
S315000017201146012000F0AEFFE469002001F07CF9CB
S3150000173094F8403043F0800384F8403094F8403009
S3150000174043F0010384F84030002001F03DF9002009
S3150000175003B030BD184BDD6995F84130DB0715D471
S3150000176008460C4601F060F995F8403064F3000332
S3150000177085F8403095F8403064F3C713204685F865
S31500001780403001F021F9204603B030BD4FF4CB7054
S3150000179003B030BD012003B030BD29696846FFF7AC
S315000017A0EDFE0028BCD00520EEE769696846FFF724
S315000017B0E5FE0028F7D1B3E7F800FE1F38B50B4B5E
S315000017C004461B68002093F8225001F02DF994F886
S315000017D08034DB0705D594F8813423EA050384F8C1
S315000017E081340020BDE8384001F0EEB8F800FE1F55
S315000017F0062070470620704706207047062070476F
S3150000180028B321B3134BDB6993F82620C2F30202F7
S3150000181002701A6AC2F302320A701A6AC2F302220C
S315000018204A701A6AC2F302128A701A6AC2F3020274
S31500001830CA701A6AC2F302420A711A6AC2F30272C3
S315000018404A711B6AC3F302638B7100207047012043
S31500001850704700BFF800FE1F05292ED8DFE801F00B
S315000018600A11181F260390F82A0000F0010080F0E4
S315000018700100704790F8360000F0010080F001008A
S31500001880704790F8380000F0010080F001007047C2
S3150000189090F8900400F0010080F00100704790F885
S315000018A0320000F0010080F00100704790F88004DB
S315000018B000F0010080F0010070470020704700BF73
S315000018C030B5A1F1020483B04FF6FF73B4FA84F485
S315000018D00546640901930A4A04E0019B43B1019B52
S315000018E0013B01932946D069FFF7B6FFA042F4D128
S315000018F0019B002B0CBF4FF4CD70002003B030BD10
S31500001900F800FE1F70B5344C86B0204600F0A8FEE5
S3150000191006A800230322009300F8182D2F4ACDE9CC
S315000019200233CDE9043302A9D3689847029DE561E5
S315000019304FF6FF73019395F83630DA0705D50BE0BD
S31500001940019B33B1019B013B019395F83C30DB07CA
S31500001950F6D5019B002B39D0002001F065F895F8EB
S31500001960A530062262F3020385F8A530002001F0B7
S315000019702BF82368E669D3E9061200254FF6FF73B4
S315000019802261174A019328464FF40043C4E9022313
S315000019906160A561636101F047F896F8803443F011
S315000019A00103284686F8803401F00EF80121042050
S315000019B0FFF786FF054648B9E36918461A6A93F8A1
S315000019C02630FFF7FBFE284606B070BD4FF4CD75F6
S315000019D0284606B070BD00BFF800FE1F383900006B
S315000019E000127A00052828D838B5524DEA6992F8CF
S315000019F0263003F0070398421CD0052B12D092F82C
S31500001A002A30DB070ED50128044618D192F840305B
S31500001A10DB097DD110462146FFF71EFF00283BD18A
S31500001A20002038BD2B6893F828305C062DD403239C
S31500001A309842E8D140F2911038BD03207047104615
S31500001A402146FFF709FF0028EAD0032CED6935D0BF
S31500001A50052C2CD0002C49D195F83C30D9072AD535
S31500001A60204600F0E1FF95F8363043F0010385F893
S31500001A703630002000F0A8FF20460121FFF720FFA6
S31500001A800028CDD04FF4CD7038BD138D13F0100F54
S31500001A900CBF03230023CBE70020ED6900F0C4FF51
S31500001AA095F8383043F0010385F83830E1E795F8CA
S31500001AB03C309B0610D440F2931038BD95F83C306C
S31500001AC01A07F8D5002000F0AFFF95F8323043F042
S31500001AD0010385F83230CCE7002000F0A5FF95F829
S31500001AE02A3043F0010385F82A30C2E7002000F0CF
S31500001AF09BFF042CBDD801A353F824F0671A0000FD
S31500001B00A11A0000251B0000CB1A0000171B0000BD
S31500001B1040F2951038BD95F8803443F0010385F8FE
S31500001B208034A6E795F8903443F0010385F89034A5
S31500001B309FE700BFF800FE1F05281DD808B5431E05
S31500001B40012B014608D9042806D068B1032815D010
S31500001B5005281FD0002008BD194BD869FFF77CFE69
S31500001B6038B140F2911008BD154AD069FFF774FEEE
S31500001B70F0B94FF4C87008BD03207047104AD06909
S31500001B80FFF76AFE0028F4D0D36993F83C301B07B0
S31500001B9013D40AE00A4AD069FFF75EFE0028E8D0AF
S31500001BA0D36993F83C30990607D440F2931008BDE8
S31500001BB0D36993F83C30DA07F7D54FF4C97008BDFE
S31500001BC0F800FE1F70B506464FF6FE7440F29315F8
S31500001BD001E0013C05D03046FFF7AEFFA842F8D041
S31500001BE000B970BD6FF4C873C318012B98BF0020ED
S31500001BF070BD00BF30B583B04FF6FF7304460120B9
S31500001C0001930D4600F010FF02A8002300F8053DE1
S31500001C1000F0ECFB94F8AA30D90604D494F8A0306E
S31500001C20C3F3001353B1019B013B0193019B002BAE
S31500001C30F0D1012000F0C8FE03B030BD94F8AA2010
S31500001C4063F300024FF6FF7384F8AA20019302E0C3
S31500001C50019B013B019394F8AA30DA0603D494F869
S31500001C60A030DB0602D5019B002BF1D194F8A03001
S31500001C70042D0CBF43F0030365F3010384F8A03081
S31500001C804FF6FF73019302E0019B013B019394F829
S31500001C90AA30D80603D494F8A030D90602D5019B01
S31500001CA0002BF1D194F8AA30042D0CBF43F00103A8
S31500001CB06FF3000384F8AA304FF6FF73019302E036
S31500001CC0019B013B019394F8AA30DA0603D494F8F9
S31500001CD0A030DB0602D5019B002BF1D19DF8030055
S31500001CE000F098FB012000F06FFE03B030BD00BF8E
S31500001CF00428124B0BD0022809D01A6892688A422F
S31500001D0004D3D86990F82A30DB0714D47047D86911
S31500001D1090F82A20D207F0D590F83220D207ECD5D9
S31500001D2090F83620D207E8D590F83820D207E4D5C7
S31500001D300421FFF75FBF0321FFF75CBFF800FE1F1A
S31500001D40052837D82DE9F843AE4E2DED028B0D460A
S31500001D5004460146F069FFF77FFD0746002842D199
S31500001D60042C57D0012C44D034B3032C60D0052C5E
S31500001D7000F0B880F56900F057FE032C00F09C8057
S31500001D80042C4ED0022C3ED195F890346FF300030C
S31500001D9085F89034002000F017FE20460221FFF758
S31500001DA08FFD002814BF4FF4CD700020BDEC028BD0
S31500001DB0BDE8F88303207047F56995F83C30DB07EA
S31500001DC000F1818095F8AA30DF0700F1858095F84B
S31500001DD0A030002000F028FE95F836306FF300039F
S31500001DE085F83630D6E7F069FFF70EFA40F2911023
S31500001DF0DCE7F56995F8AA30DA0767D495F8A030DC
S31500001E00002000F011FE95F838306FF3000385F8D6
S31500001E103830BFE7F069FFF7D1FC3846F56900F0C6
S31500001E2003FE95F880346FF3000385F88034B1E73C
S31500001E30F76997F83C30180745D497F8AA30D907C0
S31500001E4000F1BD8097F8A0303168002091F8275046
S31500001E5091F8208091F8219000F0E6FD97F8133470
S31500001E6005FA09F25BB25A4002EA08025340DBB2B5
S31500001E7087F81334002000F0A7FDF569002000F074
S31500001E80D3FD95F813346FF3861385F813340020C9
S31500001E9000F09AFDF569002000F0C6FD95F8A23025
S31500001EA0052262F3030385F8A230002000F08CFDC2
S31500001EB00020F56900F0B8FD95F832306FF30003A5
S31500001EC085F8323066E740F293106FE72846032123
S31500001ED0FFF790FEF56993E728460321FFF78AFE90
S31500001EE0F56976E7002D70D03368697893F8242079
S31500001EF091425FD893F8262095ED017A07EE902A55
S31500001F00F8EE677AF4EEC77AF1EE10FA52D493F847
S31500001F10253007EE903AF8EE677AB4EEE77AF1EEFE
S31500001F2010FA47D42978032901D0002942D1F06953
S31500001F30FFF792FC00284AD0F76997F83C309A06DA
S31500001F40C1D497F8AA30DB0756D497F8A03095F895
S31500001F500080002000F068FD3B8DB8F1030F0CBF38
S31500001F606FF3041343F010033B85002000F02CFDB3
S31500001F703368F76993F8283095F8018003F0300349
S31500001F80102B41D0202B53D095ED018A202B21D048
S31500001F90F069FFF739F90021F069FFF72BFEF569C3
S31500001FA0002000F041FD95F82A306FF3000385F814
S31500001FB02A30EFE6BDEC028B0320BDE8F8833846F5
S31500001FC02146FFF717FEF7693EE70120EEE64FF4DC
S31500001FD0CA70EBE6002000F027FDFCEEC87A97F801
S31500001FE02B2017EE903A013B63F3040287F82B206F
S31500001FF0002000F0E9FCCBE738460321FFF7FAFDA5
S31500002000F769A4E7F800FE1F214B002033F818906B
S3150000201000F00AFD3B8D69F301033B85002000F0CB
S31500002020D3FC336893F8283003F03003202B13D108
S31500002030184B002033F8188000F0F6FC97F82B3088
S3150000204068F3871387F82B30002000F0BDFC336857
S3150000205093F8283003F03003102BF76995ED018AC9
S3150000206094D1002000F0E0FC78EE087A3A8DFCEE80
S31500002070E77A002017EE903A013B63F30D223A858A
S3150000208000F0A2FC336893F8283003F030037DE7B4
S31500002090F4390000E4390000012814D0022801D0E8
S315000020A000207047052938B515460C460ED0291D67
S315000020B02046FFF745FE20B140F29113984200D02A
S315000020C038BD002038BD0846FFF78CBC1146107994
S315000020D0FFF736FE18B140F291139842F0D12879F5
S315000020E0FFF770FD0028E2D0EAE700BF2DE9F047D0
S315000020F0052884B000F28A80002900F08C800B78D5
S315000021008A799342C0F082804C789C427ED3CC7808
S315000021109C427BD84B79934278D30C79944275D301
S3150000212004280C4605467BD05B4FF86990F82630AC
S3150000213003F007039D4207D0002D40F0878090F8FA
S315000021403C30D90740F18B80036A036A036A036A4D
S31500002150036A036A036A0021C3F30268FFF74AFDB4
S3150000216007EB8502A0795368F969C3400022019301
S315000021708DF800208DF80C200A6A91F8263003F0BD
S31500002180070307EB8303C2F302625B686846D3402A
S31500002190029300F0C3F90646002838D1A379D7F890
S315000021A01C90434505F0070A5CD921464846FFF7CF
S315000021B0F1F8FC69304600F037FC94F826306AF3F3
S315000021C00203304684F8263000F0FEFBFB691A6AEB
S315000021D093F8263003F0070307EB8307C2F3026286
S315000021E07B686846D340012202938DF8002000F0F8
S315000021F095F9064658B900F081F9284B1860002871
S3150000220046D001462846FFF773FD00E00326304618
S3150000221004B0BDE8F0870126304604B0BDE8F0877B
S3150000222092B98BB91C4FF86990F84030DB090BD195
S3150000223090F8263003F00703042B85D02946FFF7D4
S315000022400BFB28B3F8697FE70526E0E7032D19D0D5
S31500002250052DF3D190F83C309B063FF575AF40F263
S315000022609316D4E700F0E0FB99F826306AF30203F0
S31500002270304689F8263000F0A7FB2146F869FFF7BB
S3150000228089F8A3E790F83C301A073FF55DAFE6E71B
S315000022904FF4C876BBE700BFF800FE1F9001FE1F93
S315000022A02DE9F04F83B0002853D0DFF83C91077832
S315000022B0D9F81C30467D93F826801A6A1A6A1A6A7B
S315000022C01A6A1A6A1A6A1B6A027DC37DC17C8DF876
S315000022D001208DF80330827D037E8DF80060052F86
S315000022E008F007088DF802108DF804208DF80530E7
S315000022F02AD802AA3A4412F8082C012A24D0022B22
S3150000230008D10279052A1FD802A90A4412F8082C16
S31500002310012A19D08246524618460521FFF7BCFE0F
S315000023200446D8B9054640F2911BE9B230465246FA
S31500002330FFF7B2FE0135044608B1584505D1052D13
S3150000234012D01DF80560F0E70324204603B0BDE86F
S31500002350F08F0124204603B0BDE8F08F40F29113C0
S315000023609842F2D10025DEE73846FFF72BFC0446FB
S315000023700028EAD1042F19D025460AF10C01384667
S31500002380FFF7B4FE04460028DFD1474505D002AB6F
S31500002390434413F8083C012B1DD0002DD5D000F086
S315000023A0ADF801463846FFF7A3FCCEE7D9F81C3056
S315000023B093F82A20D00715D593F83220D10711D5E6
S315000023C093F83620D2070DD593F8385005F001055D
S315000023D085F00105D1E74046FFF704FB0028DCD075
S315000023E00446B2E70125C8E7F800FE1F68B1084AAF
S315000023F0B2F8001192F80031C1F300016FF3000347
S315000024000170002082F8003170470120704700BF3C
S3150000241000C00140104991F8043143F0010381F8EE
S315000024200431B1F80431DB070AD54FF0FF3300E081
S315000024307BB1B1F80421D20703F1FF33F8D443B1DD
S31500002440054A92F8003160F3000382F8003100205B
S3150000245070471420704700BF00C0014070B5254D7D
S3150000246082B02B6898470120FFF7D4FF0021AE68A1
S315000024700320B0470121204AEC698DF8011003239F
S3150000248001928DF800300320A047B0F5C97FFAD13C
S3150000249069460520B04728B140F29113984201D011
S315000024A000BEEC690520A047B0F5C97FFAD102232A
S315000024B0012200208DF806008DF801308DF80230DB
S315000024C08DF8053069468DF800208DF803208DF8CB
S315000024D004202B690520984700B100BE2B6E04200E
S315000024E09847AB6A01209847EB6A9847AB6D9847C7
S315000024F002B070BD743900000000A04100B583B081
S3150000250002A9002341F8043D034B06209B69984726
S31500002510019803B05DF804FB743900000378C3B179
S31500002520012B14D18368454A017B93424AD9444A18
S3150000253093425CD9434A92F81C3103F0070399424F
S3150000254005D092F81C3161F3020382F81C31002099
S315000025507047426839498A4253D93B4B70B4F125DA
S315000025601D71197A364E41F004011972197A41F03B
S3150000257008011972197A41F001011972197AF024C9
S3150000258041F00201B24219721C7105D91D71197A06
S3150000259041F0100119721C712C4B2A499A4294BFC2
S315000025A001230223037391F81C2102F007029A42C9
S315000025B005D291F81C2163F3020281F81C21002048
S315000025C070BC7047204BF1221A711A7A6FF382029F
S315000025D01A721A7A6FF3C3021A721A7A6FF300022A
S315000025E01A721A7AF0206FF341021A721871164B9A
S315000025F0F1221A711A7AF0206FF304121A72187106
S3150000260098E713498A4205D80E4A037392F81C319B
S31500002610002070470D4B0B499A4294BF01230223B9
S31500002620037391F81C2102F007029A428FD291F8A7
S315000026301C2163F3020281F81C2188E7000E27079C
S3150000264000C2EB0B00C00140002000400068890971
S3150000265000B4C404037843F003030370704700BF5B
S31500002660014B0360704700BF043A0000044B002191
S3150000267003F1300243F8041B9342FBD1704700BFBD
S315000026804401FE1F024B43F820100020704700BF94
S315000026904401FE1F08B56F4BB3F84031D90700F16E
S315000026A0CB806C4BB3F840319A0700F1B880694B88
S315000026B0B3F840315B0700F1A580664BB3F84031B3
S315000026C0180700F19280634BB3F84031D9067FD4E6
S315000026D0604BB3F84001C0F3801000286CD15D4B0D
S315000026E0B3F840311A065AD45A4BB3F84031DB05D9
S315000026F048D4584BB3F84031980536D4554BB3F807
S315000027004031590524D4534BB3F840311A0512D43D
S31500002710504BB3F84031DB0400D408BD4E4BDB6AA6
S315000027200BB10B2098474B4AB2F8303143F4805333
S31500002730A2F8303108BD484B9B6A0BB10A20984776
S31500002740444AB2F8303143F40063A2F83031DFE78F
S31500002750414B5B6A0BB1092098473E4AB2F83031CB
S3150000276043F48063A2F83031CDE73B4B1B6A0BB1D3
S3150000277008209847374AB2F8303143F40073A2F87C
S315000027803031BBE7344BDB690BB107209847314A40
S31500002790B2F8303143F48073A2F83031A9E72E4BFA
S315000027A01B680BB1002098472A4AB2F8303143F033
S315000027B08003A2F8303197E7274B5B6803B198474F
S315000027C0244AB2F8303143F04003A2F8303186E7AC
S315000027D0214B9B690BB1062098471E4AB2F830314F
S315000027E043F01003A2F8303172E71B4B5B690BB163
S315000027F005209847174AB2F8303143F00803A2F88B
S31500002800303160E7144B1B690BB104209847114A1D
S31500002810B2F8303143F00403A2F830314DE70E4BE5
S315000028209B680BB1022098470A4AB2F8303143F050
S315000028300203A2F830313AE7074BDB680BB10320FD
S315000028409847044AB2F8303143F00103A2F8303118
S3150000285027E700BF006000404401FE1F114B0178CE
S315000028605A5C02F01F03920630B4448845780DD5B1
S3150000287001222B2902FA03F00ED0332904D1012DAF
S3150000288004BF013305FA03F030BC70472C441B1B10
S315000028900120984030BC7047072CF5D9013302FA65
S315000028A003F0F1E7303E00000378452B1CD870B5E5
S315000028B0164CE55CFF2D26D014460E46FFF7CEFFDC
S315000028C0134BAA0953F8223086B1AA0600D5D4B113
S315000028D0EFF31082012181F310881968084318600C
S315000028E082F31088002070BD01207047EFF310823C
S315000028F0012181F31088196821EA0000186082F32B
S315000029001088304670BD032070BD00BF303E000009
S31500002910783E000000221146FFF7C6BF704700BF91
S315000029200B4A0C4B10B49B1A0B4CDB08236063B1AB
S315000029300A4800219388C3F3090340F8043B23683F
S3150000294001318B4202F10802F4D85DF8044B70475E
S3150000295000050000000500007401FE1F0063004032
S31500002960F0B5134E134C1449144A154BDFF854C0F6
S315000029700E60A41BA4081460C3F800C08CB106EB5B
S31500002980840735464FF0000E55F8040B32460023F7
S3150000299052F8041B884205D001339C42F8D1BD424F
S315000029A0F2D1F0BDBD420CF803E0EDD1F9E700BF6E
S315000029B000050000B00600007C01FE1F7801FE1F26
S315000029C08001FE1F7400FE1FEFF31081012383F3C5
S315000029D01088124B33F8102092B22AB133F8102027
S315000029E0013A92B223F8102033F810309BB28BB91B
S315000029F00B4A10B40B4CB2F8FE3334F8100043F413
S31500002A00254323EA0003A2F8FE3381F310885DF81C
S31500002A10044B704781F31088704700BF8401FE1F86
S31500002A2000E001408C3E000030B4EFF3108101233A
S31500002A3083F310880C4A32F810309BB253B90B4C12
S31500002A400B4DB4F8FE3335F8105043F425432B43B1
S31500002A50A4F8FE3332F8103001339BB222F810305E
S31500002A6081F3108830BC70478401FE1F00E00140EE
S31500002A708C3E0000024B00221A805A809A807047D2
S31500002A808401FE1F0C4A08B513684BB1033020F0D1
S31500002A9003000A491844884205D81060184608BD44
S31500002AA0074B1360F2E700F017F90C2303604FF0B1
S31500002AB0FF33184608BD00BF8C01FE1F5012FE1FD3
S31500002AC05002FE1F00BE704708B500F005F800F082
S31500002AD0B3F8FEE7704700BF434AD2F8883043F4A4
S31500002AE0700370B50020C2F88830FFF7F3FFFFF7D8
S31500002AF0BDFD3E4B1B689847FFF7BCFFFFF7AEFCDA
S31500002B003B4A3C4B3C481B680024148098473B4991
S31500002B103B4B8B4204D0224603F8012D9942FBD150
S31500002B203848394B984206D0384A12F8011B03F848
S31500002B30011B8342F9D1364B36493748374A0024C0
S31500002B404FF425459C801D809860DA60B1F82021FD
S31500002B50012542F48052A1F820219D80FFF7CEFC8A
S31500002B602F4B18602846FFF7B5FF2E4D2E4B5B1BEB
S31500002B70A3424FEAA30605DD013455F8043B984706
S31500002B80A642F9DCFFF7ECFEFFF7CAFE274B284CFE
S31500002B901B6828489847D4E90001D4E90023584027
S31500002BA000F0B8F8D4E900560BA1D1E900012A18C3
S31500002BB046EB0103C4E9002309A1D1E90001D4E9E8
S31500002BC0005685EA000286EA0103C4E900230020D4
S31500002BD0BDE87040FFF7A2BE1654E7A1E34FE6F446
S31500002BE037B8929E2B52ADFD00ED00E0383900005B
S31500002BF03C01FE1F6C380000A03E00002001FE1FB5
S31500002C004C02FE1FE000FE1F0000FE1F603F00009A
S31500002C10000D0040006000405012FE1F4F1AFE1FBC
S31500002C209001FE1F6C00FE1F7000FE1F543900004D
S31500002C301801FE1F943E000008B500F003F80020BE
S31500002C4008BD00BF00B5ADF5017D00F069FB064A81
S31500002C50064B11881888064A6B4600F00BF80DF5EE
S31500002C60017D5DF804FB00BFC83E0000D83E0000B1
S31500002C70CC3E000010B500FB01F0B0F5801F24BF6C
S31500002C80002025E003F580614FF0000C8B4208BF61
S31500002C9006E0D1F800E04FF0000E41F804E9F5E750
S31500002CA0D3F800E04FF0000EC3F800E0604508BF1F
S31500002CB00EE012F8014B4FEA440401EB0403D3F88B
S31500002CC000E00EF1010EA3F800E00CF1010CEDE7B7
S31500002CD0BDE8104008467047014B1868704700BFB2
S31500002CE00000FE1F30B50024A24201D1002007E0FB
S31500002CF0035D01340D1915F8015CAB42F4D0581B85
S31500002D0030BD02440346934200D1704703F8011BCD
S31500002D10F9E7FFFF38B50D4B1C68A36B05467BB979
S31500002D20182000F01BF80A4A0A4BA063C0E90023EA
S31500002D30094B83600B23838101220023C0E904230E
S31500002D40A36B00221D615A6138BD00BF0000FE1F43
S31500002D500E33CDAB34126DE6ECDE0500024B0146B8
S31500002D60186800F051B800BF0000FE1F38B50546D0
S31500002D70002945D051F8043C0C1F002BB8BFE418BD
S31500002D8000F0ACF81F4A1368104633B9636014604C
S31500002D902846BDE8384000F0A2B8A3420CD9216805
S31500002DA06218934204BF1A685B68636004BF5218D6
S31500002DB022600460ECE713465A680AB1A242FAD9C7
S31500002DC019685818A0420BD120680144581882424D
S31500002DD01960DDD1106852685A6001441960D7E75E
S31500002DE002D90C232B60D3E7206821188A4204BF3E
S31500002DF011685268626004BF091821605C60C7E709
S31500002E0038BD00BF9401FE1F70B5CD1C25F003052B
S31500002E1008350C2D38BF0C25002D064601DBA942CE
S31500002E2003D90C233360002070BD00F057F8214A07
S31500002E301468214691B9204C23681BB9304600F02E
S31500002E403DF820602946304600F038F8431C24D16E
S31500002E500C233360304600F042F8E4E70B685B1B56
S31500002E6018D40B2B0FD90B60CD50CC18304600F080
S31500002E7036F804F10B00231D20F00700C31AD3D047
S31500002E805A42E250D0E78C424B6816BF636013602B
S31500002E900C46EBE70C464968CCE7C41C24F0030457
S31500002EA0A04205D0211A304600F008F80130CFD0F4
S31500002EB02560DBE79401FE1F9801FE1F38B5064C1E
S31500002EC00023054608462360FFF7DCFD431C02D1BC
S31500002ED0236803B12B6038BD4802FE1F7047704758
S31500002EE00A4B10B50446186818B183690BB900F08F
S31500002EF0B5FA132C07D8064850F83430013302D0FF
S31500002F0000EBC40010BD0020FCE700BF0000FE1F60
S31500002F10A801FE1FF8B5431C054609D1FFF7DCFEE4
S31500002F2013240646002720463946ABBE04463460C5
S31500002F302846F8BDF8B50546FFF7CEFE132406462B
S31500002F40002720463946ABBE044634602846F8BD05
S31500002F5030B585B0CDE901010392062401AD2046C6
S31500002F602946ABBE04462046FFF7D4FF05B030BD68
S31500002F7070B50E461546FFF7B3FF044630B9FFF7A6
S31500002F80ABFE092303604FF0FF3070BD2A46314681
S31500002F900068FFF7DDFF431C1FBF6368281A1B1874
S31500002FA06360F2E7F7B50C461646FFF799FF05464C
S31500002FB040B9FFF791FE092303604FF0FF34204626
S31500002FC003B0F0BD022E03D9FFF786FE1623F3E702
S31500002FD0012E12D14368E418F6D42B680A26CDE9EF
S31500002FE000346F4630463946ABBE06463046FFF7DC
S31500002FF091FF0028E1DB6C60E1E7022EEDD102AF24
S31500003000036847F8083D0C2630463946ABBE0646EF
S315000030103046FFF77FFF431CCFD00444DDE7FFF7C0
S31500003020C1BF30B585B0CDE901010392052401ADDC
S3150000303020462946ABBE04462046FFF76BFF05B087
S3150000304030BD70B50E461546FFF74AFF044630B947
S31500003050FFF742FE092303604FF0FF3070BD2A469A
S3150000306031460068FFF7DDFF021EF5DB6368A81A2C
S31500003070034495426360F1D10020BDE87040FFF73C
S3150000308059BF37B502AD022445F8040D204629463E
S31500003090ABBE04462046FFF73DFF03B030BDFFFF41
S315000030A038B50546FFF71CFF044630B9FFF714FE96
S315000030B0092303604FF0FF3038BD013D012D09D8CB
S315000030C0094B9A681B699A4204D14FF0FF3303609B
S315000030D00020F1E72068FFF7D4FF0028ECD14FF07D
S315000030E0FF332360E8E700BFA801FE1F70B50C465A
S315000030F0FFF7F6FE064630B9FFF7EEFD092303603B
S315000031004FF0FF3070BD636843F4005363604FF4C3
S31500003110806363640C2528463146ABBE05462846C7
S31500003120FFF7F8FE431C1CBF20610020EAE738B514
S315000031300D460446582200212846FFF7E2FD2046A8
S31500003140002100F011F8431C04460BD06B6843F4D1
S3150000315001436B602946FFF7C9FF05462046FFF786
S315000031609FFF2C46204638BD2DE9F0472B4B96B0E5
S3150000317082460E460025984653F83540611C4FEAB4
S31500003180C50736D00135142DF6D1FFF7A5FD182356
S3150000319003604FF0FF343CE0C6F3004440F20163A5
S315000031A0B20748BF44F002041E4218BF44F00404AC
S315000031B0330748BF24F00404504648BF44F00804CF
S315000031C0CDF800A000F017FACDE901400124204611
S315000031D04946ABBE0446002C06DB4744002348F8AC
S315000031E035407B602C4614E02046FFF7A3FE0446DC
S315000031F00FE006F42063B3F5206FE946CCD14946CB
S315000032005046FFF794FF0130C6D0FFF765FD112346
S315000032100360204616B0BDE8F08700BFA801FE1F78
S315000032202DE9F74307468846294800211546FFF74A
S315000032309BFF2A46044600213846FFF762FD631CC1
S3150000324015D02046FFF74CFE0C26814630464946EF
S31500003250ABBE06463046FFF75DFE032802DD0338A7
S31500003260A84208DC2046FFF71BFF4FF0FF3420463C
S3150000327003B0BDE8F08304220DEB02012046FFF700
S3150000328077FE0328EEDD9DF80430532BEAD19DF836
S315000032900530482BE6D19DF80630462BE2D19DF845
S315000032A00730422BDED1012241462046FFF77AFE47
S315000032B00028D7DB2A4639462046FFF759FE054641
S315000032C02046FFF7EDFE2846FFF724FE0446CEE72C
S315000032D0E03E000037B50A4D0A4C0021012201A844
S315000032E029602260FFF79CFF002807DD9DF8043067
S315000032F003F0010203F002032A60236003B030BD2D
S315000033006400FE1F6800FE1F10B5044C2268002AE8
S3150000331001DAFFF7DFFF206810BD00BF6800FE1F5F
S315000033202DE9F04F85B0DFF8B090CDF80490032377
S31500003330002403930DF10408029401252846414612
S31500003340ABBE0546204E214A356023464FF0FF317D
S31500003350144642F833100133142BFAD1FFF7D4FF89
S315000033601B4DD0B14FF0030A0423CDF8049001277A
S31500003370CDF80CA0029338464146ABBE8346154BAA
S31500003380CDF80490C3F800B00823CDF80CA0029342
S3150000339038464146ABBE07462F602B68013302BF55
S315000033A00C4B1B682B603368236000266660FFF7B2
S315000033B0ABFF30B1074B1B68C4E902362B68C4E982
S315000033C0043605B0BDE8F08FA001FE1FA801FE1F60
S315000033D09C01FE1FA401FE1FF63E0000002310B54F
S315000033E00446C0E90033836081814366C281C0E937
S315000033F004338361194608225C30FFF782FC054BD3
S315000034006362054BA362054BE362054B24622363AB
S3150000341010BD00BF7135000093350000CB350000AC
S31500003420EF350000014900F085B800BF59370000AC
S3150000343070B54A1E682555430E4605F17401FFF71F
S31500003440E3FC044640B10021C0E900160C30A06040
S3150000345005F16802FFF755FC204670BD836910B57B
S31500003460044633BBC0E912330365124B124A1B688C
S315000034708262984204BF0123836100F01FF86060F6
S31500003480204600F01BF8A060204600F017F8002246
S31500003490E06004216068FFF7A1FF01220921A0680E
S315000034A0FFF79CFF02221221E068FFF797FF012336
S315000034B0A36110BDDC3E000025340000F8B51B4BAF
S315000034C01E68B369074613B93046FFF7C7FF48368B
S315000034D0D6E90134013B03D5336833B13668F7E7E3
S315000034E0B4F90C506DB16834F4E704213846FFF79F
S315000034F09FFF30600028F1D10C233B600446204634
S31500003500F8BD0B4B6566C4E90055A560C4E90335F3
S31500003510C4E905550822294604F15C00FFF7F1FBD2
S31500003520C4E90D55C4E91255E9E700BFDC3E0000C9
S315000035300100FFFF2DE9F8438046894600F1480463
S31500003540002614B93046BDE8F883D4E90175013F79
S3150000355001D52468F5E7AB89012B07D9B5F90E30FB
S31500003560013303D029464046C84706436835EEE78F
S3150000357010B50C46B1F90E1000F02AF90028ABBFC1
S31500003580636DA3891B1823F48053ACBF6365A381C5
S3150000359010BD2DE9F0411F468B89DB0505460C461B
S315000035A0164605D502230022B1F90E1000F0FEF8EA
S315000035B0A389B4F90E1023F48053A38132463B4607
S315000035C02846BDE8F04100F01FB810B50C46B1F929
S315000035D00E1000F0EBF8431CA38915BF606523F4B9
S315000035E0805343F48053A38118BFA38110BDB1F962
S315000035F00E1000F01BB8034613F8012B002AFBD16E
S31500003600181A01387047FFFF38B5074C05460846BB
S315000036101146002222601A46FFF713FD431C02D111
S31500003620236803B12B6038BD4802FE1F38B5064C2F
S315000036300023054608462360FFF732FD431C02D1EE
S31500003640236803B12B6038BD4802FE1F8A892DE925
S31500003650F041054610070C4658D44B68002B05DC94
S315000036600B6C002B02DC0020BDE8F081E66A002E20
S31500003670F9D0002312F480522F68216A2B6032D0D1
S31500003680606DA3895A0705D56368C01A636B0BB1D1
S31500003690236CC01A00230246E66A216A2846B04710
S315000036A0431CA38906D129681D2948D8294ACA403E
S315000036B0D60744D500226260D9042269226004D567
S315000036C0421C01D12B6803B96065616B2F6000292C
S315000036D0C9D004F14403994202D02846FFF746FBBD
S315000036E000206063C0E701232846B047411CC8D1CB
S315000036F02B68002BC5D01D2B01D0162B01D12F60B6
S31500003700B1E7A38943F04003A381ADE70F69002F1A
S31500003710A9D093070E6808BF4B690F6018BF002336
S31500003720A6EB07088B60B8F1000F9CDD43463A46CE
S31500003730216AA66A2846B047002806DCA38943F01A
S315000037404003A3814FF0FF308EE70744A8EB000843
S31500003750E9E700BF0100402038B50B6905460C4675
S31500003760DBB118B183690BB9FFF778FE0C4B9C42AD
S3150000377009D16C68B4F90C307BB121462846BDE806
S315000037803840FFF763BF074B9C4201D1AC68F1E7B5
S31500003790054B9C4208BFEC68ECE7002038BD00BF33
S315000037A01C3F00003C3F0000FC3E000038B5074CC3
S315000037B0054608461146002222601A46FFF72FFCEE
S315000037C0431C02D1236803B12B6038BD4802FE1F9B
S315000037D038B5074C054608461146002222601A46AF
S315000037E0FFF7C6FB431C02D1236803B12B6038BD2B
S315000037F04802FE1F4275696C74207769746820520E
S31500003800656E657361732053796E657267792028DA
S31500003810544D2920536F6674776172652050616339
S315000038206B6167652076657273696F6E20312E371E
S315000038302E382B6275696C642E32313036626531F2
S315000038406131636234000000312E372E38000000EB
S3150000385000080701F8B500BFF8BC08BC9E467047D3
S31500003860F8B500BFF8BC08BC9E467047D10B0000F7
S31500003870C10B0000590C0000D90800008D0700009C
S3150000388019080000AD0A0000F106000085080000D6
S31500003890E109000065070000E10700003D070000A0
S315000038A0A909000071080000020403040404FFFFD4
S315000038B000010102010202030102020302030304E2
S315000038C001020203020303040203030403040405C2
S315000038D001020203020303040203030403040405B2
S315000038E00203030403040405030404050405050692
S315000038F00102020302030304020303040304040592
S315000039000203030403040405030404050405050671
S315000039100203030403040405030404050405050661
S315000039200304040504050506040505060506060741
S31500003930000103070F1F3F7F690D0000250D0000E2
S31500003940D50D0000990E0000150E0000550D000063
S31500003950080104017111000041110000DD10000092
S31500003960F110000005110000191100002D110000D2
S315000039700401030105190000A1220000411D0000F9
S31500003980E5190000ED20000001180000E11200001A
S31500003990391B0000A5160000D91300003D140000D5
S315000039A0651400008D14000049160000B5140000CF
S315000039B0DD140000ED110000F1110000F917000000
S315000039C0F1170000F5170000FD17000005150000AF
S315000039D02D15000055150000B1150000F511000069
S315000039E00F010401000001000000020001000200B6
S315000039F00400FFFF000001000200FFFF01000200BB
S31500003A000300FFFF40420F000000000040420F008D
S31500003A10000000000400000002000000002D31013B
S31500003A2000366E0130040201020A1E00D0FE0100BB
S31500003A3002000310040000001C0000001300000038
S31500003A40030E0010FFFFFFFFFFFFFFFFFFFFFFFF5B
S31500003A50FFFFFFFF5237465337473237483341306F
S31500003A60314346435753313434314131303000000D
S31500003A700000000002B06400F00000000100081021
S31500003A80F3E0BFB6057933498B43F24F1693A05D39
S31500003A901E7A1DD8700D7A8242786A5EC35C0B1955
S31500003AA00400501100000040FFFF0008FFC110088D
S31500003AB01FFF1B057F0028073F002F063E8047801B
S31500003AC04C806A0064806B00820056806E00BD8068
S31500003AD0B08083006F005B8070007200710073001D
S31500003AE0740075008A8086808D80CF8076006C0099
S31500003AF06D00B5807B007A007C00A080770078009E
S31500003B00790090809A80978084009D80A3807D00B4
S31500003B10D580D880A6808500AD80A980DE807E0015
S31500003B207F008000810000000607021000000000F0
S31500003B30FFFF00000020000000010000000001005F
S31500003B40FFFF3F0000800000000100000607011093
S31500003B5000001040FFFF104040000000040000007D
S31500003B600A000410070B0B0F0000FE1FFFFFFF1FCC
S31500003B7000000020FFFF032000000420FFFF0720B5
S31500003B8000E00F20FFFF0F20010700100800400093
S31500003B90005000400803011000520040015F001071
S31500003BA00100000C00000040011F00100100000190
S31500003BB0000C00400003001001000001000D004051
S31500003BC0010700100100000100E07F400003001023
S31500003BD00100100000C07F40E0010310B001031097
S31500003BE0C0010310200003105400031030000F1012
S31500003BF07004031000080710100003104604031099
S31500003C004105031040070310000C03104004071081
S31500003C104204031044040310D0050310E0050B1002
S31500003C20F00503100F07071040090310000E0711D7
S31500003C30400E0310600E03106000071010040310FE
S31500003C40B0070710800403100200001003000001F3
S31500003C500030054007030300000F00100A00200093
S31500003C6000000740000F001002000001002007407E
S31500003C70020000100E000001008007403F1F1F1FBA
S31500003C800F0F0F0F070707070707000000030010B5
S31500003C9001001000F08F074000030010040000012F
S31500003CA0002004400003001002000001004008400C
S31500003CB00007001006000001005008400007001031
S31500003CC0020000100000054000070010020000047A
S31500003CD000200640020000100200000200400640DC
S31500003CE007070000000700110200000100E0044081
S31500003CF001030010C000040000080440080301107E
S31500003D00000D0440040002100200000200C005403D
S31500003D102B2B00007F007F003F000F007F006F000D
S31500003D201F000F00040001100C00200000000440DA
S31500003D30070B0B0B0B03030303030303FFCFFFC7A1
S31500003D40FFFFFFFFFF30FF30FFFFFFFFFFFFFFFF1B
S31500003D50FFFFFF38FFFFFFFFFFFFFF00FF3F7F0072
S31500003D60FFFFE301FFFF0307FF000300040002104B
S31500003D70010020000010084003000000FFFFFF0FB5
S31500003D8003000000000300100100000200000064B0
S31500003D90011700100100001000000940001F00205C
S31500003DA001000002000006400103001001000001AE
S31500003DB000440640010300100100000100450640D2
S31500003DC00103001001000008005006400003001027
S31500003DD00200000400580640FFFFFFFFFFFFFFFF41
S31500003DE0FFFFFFFFFFFFFFFFFFFFFFFFFFFFFFFFDD
S31500003DF0FFFFFFFFFFFFFFFFFFFFFFFFFFFFFFFFCD
S31500003E00FFFFFFFFFFFFFFFFFFFFFFFFFFFFFFFFBC
S31500003E10FFFFFFFFFFFFFFFFFFFFFFFFFFFFFFFFAC
S31500003E20FFFFFFFFFFFFFFFFFFFFFFFF725ABC9E72
S31500003E30FFFFFFFFFFFFFF3636FFFF8EFFFFFFFF8F
S31500003E40FF808D815F4953839FFFFFFFFFFFFFFFC9
S31500003E50D0F4D6FFDCFFFFFFFFFFFFE5EEFFFFC359
S31500003E604245466B8C8988FFFFFFFFFFFFFFFFFF80
S31500003E704F6D82848685FFFF1CE001400070044080
S31500003E8004700440087004400005000001000200B0
S31500003E900800FFFF01000000000000000000000015
S31500003EA004000000A83E0000000001000801000018
S31500003EB00000010009010000000001000A010000E5
S31500003EC000000100000300000300FFFF00000000E7
S31500003ED000000000000000000400FFFF0400FE1FB9
S31500003EE03A73656D69686F7374696E672D6665618F
S31500003EF07475726573003A747400FFFF0000000069
S31500003F0000000000000000000000000000000000AB
S31500003F10000000000000000000000000000000009B
S31500003F20000000000000000000000000000000008B
S31500003F30000000000000000000000000000000007B
S31500003F40000000000000000000000000000000006B
S31500003F50000000000000000000000000000000005B
S31500003F600400FE1F000000001C3F00003C3F000054
S31500003F70FC3E000000000000000000000000000001
S31500003F80000000000000000000000000000000002B
S31500003F90000000000000000000000000000000001B
S31500003FA0000000000000000000000000000000000B
S31500003FB000000000000000000000000000000000FB
S31500003FC000000000FFFFFFFFFFFFFFFFD506000018
S31500003FD0B106000000000000000000000000000024
S31500003FE000000000000000000000000000000000CB
S31500003FF000000000000000000000000000000000BB
S3150000400000000000000000000000000000000000AA
S31500004010000000000000000000000000000000009A
S31500004020000000000000000000000000000000008A
S31500004030000000000000000000000000000000007A
S31540120050FFFFFFFFFFFFFFFFFFFFFFFFFFFFFFFF58
S70500002AC907
