S00C00006C6162372E73726563B2
S31500000000C821FE1F4D2B000091260000492B000041
S31500000010492B0000492B0000492B0000000000007E
S31500000020000000000000000000000000492B000056
S31500000030492B00000000000049480000FD48000070
S31500000040FFFFFFFFFFFFFFFFFFFFFFFFFFFFFFFFBA
S31500000050FFFFFFFFFFFFFFFFFFFFFFFFFFFFFFFFAA
S31500000060FFFFFFFFFFFFFFFFFFFFFFFFFFFFFFFF9A
S31500000070FFFFFFFFFFFFFFFFFFFFFFFFFFFFFFFF8A
S31500000400FFFFFFFFFFFDFFFFFFFFFFFFFFFFFFFFF8
S31500000410FFFFFFFFFFFFFFFFFFFFFFFFFFFFFFFFE6
S31500000420FFFFFFFFFFFFFFFFFFFFFFFFFFFFFFFFD6
S31500000430FFFFFFFFFFFFFFFFFFFFFFFFFFFFFFFFC6
S31500000440FFFFFFFFFFFFFFFFFFFFFFFFFFFFFFFFB6
S31500000450FFFFFFFFFFFFFFFFFFFFFFFFFFFFFFFFA6
S31500000460FFFFFFFFFFFFFFFFFFFFFFFFFFFFFFFF96
S31500000470FFFFFFFFFFFFFFFFFFFFFFFFFFFFFFFF86
S31500000480FFFFFFFFFFFFFFFFFFFFFFFFFFFFFFFF76
S31500000490FFFFFFFFFFFFFFFFFFFFFFFFFFFFFFFF66
S315000004A0FFFFFFFFFFFFFFFFFFFFFFFFFFFFFFFF56
S315000004B0FFFFFFFFFFFFFFFFFFFFFFFFFFFFFFFF46
S315000004C0FFFFFFFFFFFFFFFFFFFFFFFFFFFFFFFF36
S315000004D0FFFFFFFFFFFFFFFFFFFFFFFFFFFFFFFF26
S315000004E0FFFFFFFFFFFFFFFFFFFFFFFFFFFFFFFF16
S315000004F0FFFFFFFFFFFFFFFFFFFFFFFFFFFFFFFF06
S3150000050020000000200001002F0000002F00010045
S315000005100C00010011000000300000003000010056
S31500000520240000002400010024000200240003002F
S31500000530240004002400050013000000170000003A
S315000005402300000021000000210001000700000038
S31500000550070001000700020007000300070004006F
S31500000560070005000700060007000700120000004C
S3150000057044000000080000000B00000041000000DD
S31500000580400000004000010004000000430000009D
S315000005902B0000002B000A002B000B002B000C0088
S315000005A02B000D002B0001002B0002002B00030086
S315000005B02B0004002B0005002B0006002B00070073
S315000005C02B0008002B0009000600000006000A00A8
S315000005D006000B0006000C0006000D0006000E00CB
S315000005E006000F00060001000600020006000300D8
S315000005F006000400060005000600060006000700C7
S31500000600060008000600090015000000150001009C
S3150000061015000200310000002A000000450000001D
S3150000062010000000030100000300000003000100A9
S315000006300F0000000D0000002D0000004200000029
S315000006402C0000002C0001002C0002002C000300EE
S31500000650320000002800000018000000140000000E
S31500000660140001001400020014000300140004002A
S31500000670140005001400060014000700140008000A
S3150000068014000900340000003400010016000000C8
S31500000690160001003500000036000000360001009B
S315000006A02200000033000000330100002900000092
S315000006B010B5054C237833B9044B13B10448AFF396
S315000006C000800123237010BD2001FE1F00000000E2
S315000006D0685A000008B5034B1BB103490348AFF342
S315000006E0008008BD000000002401FE1F685A0000BB
S315000006F0114A136870B4040A9C4216D25668C0B2F6
S3150000070000F11005012356F8246003FA05F5354279
S315000007100BD069B100EB0410936853F82030C3F393
S31500000720400300200B7070BC7047032070BC7047FC
S31500000730184670BC704700BFE000FE1F084B1A68E1
S31500000740000A904207D241B1DA6843010432002020
S315000007509B580B807047032070470120704700BFED
S31500000760E000FE1F084B1A68000A904208D249B101
S31500000770DA684301043200209B581B0C0B8070473B
S315000007800320704701207047E000FE1F70B4134C31
S315000007902268030A93421BD26668C0B200F11005B4
S315000007A0012256F8236002FA05F5354210D091B1C0
S315000007B0E4685B01043402FA00F01C5983B233EAA0
S315000007C0144313BF002000200A70087070BC7047E5
S315000007D0032070BC7047104670BC7047E000FE1FD7
S315000007E00C4B10B41C68000AA0420ED26AB1DB683A
S315000007F05DF8044B083303EB401022EA01030A407C
S3150000080042EA034242600020704703205DF8044B31
S31500000810704700BFE000FE1F144A70B41468030A54
S31500000820A3421DD25668C0B200F11004012556F845
S31500000830236005FA04F4344212D0A94210D8D268D3
S3150000084002F1080202EB431305FA00F05D680AD0D4
S3150000085045EA0040000C0004586070BC0020704758
S31500000860032070BC7047284380B2F5E7E000FE1F06
S3150000087018B1034B0360002070470120704700BF8A
S3150000088007010301012920D870B4124C2368020A1B
S315000008909A4217D26668C0B200F11005012356F8D5
S315000008A0226003FA05F535420CD003FA00F083B254
S315000008B069B10020E168520108311843505070BCFC
S315000008C000207047032070BC704703207047000467
S315000008D00B46EFE7E000FE1F012957D82E4BF0B478
S315000008E01C68020AA2424ED25D68C0B200F1100630
S315000008F0012455F82250B4402C4244D000EB02109B
S315000009009C681D6954F82030002941D043F0040149
S31500000910224E0E40EFF31087012383F31088204BFD
S315000009201A8892B222B94FF0400CEA7085F803C0DB
S315000009301A88013292B21A8087F31088CF0354F8CE
S31500000940202007D5174F22F480320F4044F820208C
S3150000095044F8207044F82060EFF31081012282F3FE
S3150000096010881A8892B21AB11A88013A92B21A807D
S315000009701B889BB213B98022EB70EA7081F3108852
S315000009800020F0BC70470320F0BC7047032070477E
S3150000099023F00401BCE700BFE000FE1FD5FC011FE9
S315000009A03C01FE1FD5FC001FB2B10C4B10B41C68F5
S315000009B0000AA0420CD2DB6822EA01044001083397
S315000009C00A4042EA0442C2505DF8044B00207047D8
S315000009D003205DF8044B704703207047E000FE1FBC
S315000009E0D2B10E4B70B41C68000AA04211D2DD6869
S315000009F0400102EA01032E582C58334361EA0202F1
S31500000A009BB2210C1A4009040A432A50002070BCEC
S31500000A107047032070BC704703207047E000FE1F3C
S31500000A20F8B500283BD009681E4F4FF0000C01EBCB
S31500000A30C00066464FF0010E8D8840F20242954294
S31500000A404FF000030BD10C680EFA03F204F0B85411
S31500000A50D2B2B4F1807F0CBF164342EA0C0C0133CC
S31500000A60032B06D037F813209542ECD00133032B25
S31500000A70F8D108318142DFD16FEA0C0C5FFA8CF4B1
S31500000A80012002F013F8084B93F8BB2416432640C6
S31500000A9083F8BB640120BDE8F84001F0D7BF0646E5
S31500000AA0FF24EDE71450000000E0014070B582B06D
S31500000AB002AB002403F8044D054618460E4601F025
S31500000AC0C7FD9DF80430DB0715D5202D10D8012E63
S31500000AD00ED80A4B1B691A7813BF154302F0300271
S31500000AE022EA050505F0300520461D7002B070BDEE
S31500000AF0032002B070BD062002B070BDE000FE1FEC
S31500000B002DE9F0470746011D0088FFF789FF3B885E
S31500000B10002B4ED0DFF8A4E0274900224FF0010C4D
S31500000B204FF0400A4FF080097B68DEF8106053F8FA
S31500000B303250DEF8084003EBC2039B88180ADBB28A
S31500000B4003EB0013EFF310888CF31088088880B24B
S31500000B5010B9F07086F803A00888013080B20880CA
S31500000B6088F3108815F4803F54F8230007D020F44A
S31500000B70803025F4803844F8230044F8238044F874
S31500000B802350EFF310808CF310880B889BB21BB1B7
S31500000B900B88013B9BB20B800B889BB213B9F37099
S31500000BA086F8039080F3108801323B8892B2934214
S31500000BB0BAD80020BDE8F0873C01FE1FE000FE1F0A
S31500000BC018B143680BB1FFF79BBF0120704700BF08
S31500000BD000283AD04368002B37D02DE9F04186B083
S31500000BE006AD00230922019305F8142D184A194C65
S31500000BF0D2F80C8002930646CDE90333059302A989
S31500000C002846C047029BE3600A22BDF80C308DF8E7
S31500000C10042002A9059A6260284601272360C0477E
S31500000C20029B8DF80570284602A9A360C047736829
S31500000C30029A22612BB13046FFF762FF06B0BDE88B
S31500000C40F081384606B0BDE8F0810120704700BF4C
S31500000C50A4500000E000FE1F2DE9F0412F4C236850
S31500000C604FEA1028984584B053D26268C5B205F1A0
S31500000C701003012752F8282007FA03F3134248D03D
S31500000C800E4604A902AA034641F80C2D3846ADF8D3
S31500000C900C300296ADF8007005EB0815FFF7C0FEA4
S31500000CA02169A068EFF3108487F310881C4B1A881B
S31500000CB092B212B94027CA70CF701A88013292B226
S31500000CC01A8084F31088F40350F8252007D522F4FF
S31500000CD0803226F4803440F8252040F8254040F83C
S31500000CE02560EFF31080012282F310881A8892B2F1
S31500000CF01AB11A88013A92B21A801B889BB213B9AC
S31500000D008022CB70CA7080F31088002004B0BDE842
S31500000D10F081032004B0BDE8F08100BFE000FE1FB3
S31500000D203C01FE1F70B1084A084B12689A4207D16F
S31500000D30074B1B685A6803EB820303600020704769
S31500000D401220704701207047F400FE1F494D4600EF
S31500000D509CB17F4020B1034B1B68036000207047A5
S31500000D6001207047BC50000008B5154B196889B1C1
S31500000D7003F57F70002201E053F8041F83420A4402
S31500000D80FAD13AB90F4B19680B0CB3F5807F04D032
S31500000D9000BEFDE700BE00BEFCE70B68013B033367
S31500000DA007D824310422084804F02AF820B100BEEE
S31500000DB0FDE700BE00BEFCE7044B054A1A6008BD0D
S31500000DC09C5100009CB17F40C0510000F400FE1F02
S31500000DD0494D4600A8B10C4A0C4B12689A420ED1F6
S31500000DE00B4B1B685A6800F1100103EB820353F8A2
S31500000DF0042F40F8042B8142F9D1002070471220BD
S31500000E0070470120704700BFF400FE1F494D4600A1
S31500000E109CB17F4040B13AB1F0B51B4C1B4B2468E6
S31500000E209C4203D01220F0BD01207047184B1E686B
S31500000E301EB3184B07781B68002404E00134B44243
S31500000E4003F1080319D09D79BD42F7D193F805C087
S31500000E504588B5EB9C0FF1D1DD7990F801C005F01E
S31500000E60070EE645EAD1B1EBD50FE7D19B881470A2
S31500000E70C3F3090353800020F0BDDF21FF23117067
S31500000E8053800B20F0BD00BFF400FE1F494D460005
S31500000E907401FE1FF455000038B131B18A4A8B4BFC
S31500000EA012689A4203D012207047012070472DE93C
S31500000EB0F041874D0278AC6805EB8404A3789A422A
S31500000EC064D24FEA121C04EB8C0702F00F06B7F847
S31500000ED0088028FA06FE1EF0010F57D0072EBF7AAB
S31500000EE00AD904EB8C0C02F007069CF80B2002F0E2
S31500000EF00F0217444FEA1828DFF8DCC1754A1CF8C0
S31500000F00066006EA08061B09925D02333A449B0016
S31500000F1003EB4203E618E25A96F90160C2F30902AE
S31500000F20002E05EB820308DB002B2FD04678002E1F
S31500000F304BD040F27950BDE8F08115F82220457873
S31500000F405208DDB14FF0020C012604271C78E40795
S31500000F5005F1FF35EDD5052A0CD8DFE802F0342D72
S31500000F60221C1A039A78D41C1CFB026202EB940220
S31500000F7003EB82031A785208002DE7D1042A00F207
S31500000F80A080DFE802F06262624F3B004FF4AF6080
S31500000F90D1E70833EEE79A7817FB026203EB820388
S31500000FA0E8E71C799A7812FB04F20332033402EB69
S31500000FB0940203EB8203DDE71A79033202F4FE7230
S31500000FC00C321344D6E70C33D4E7DF784088D4F8E4
S31500000FD004C03E46C6F30304C7F3031701264F7247
S31500000FE08C728E8000284FD135F822209B78CB80DA
S31500000FF00CEB02220A600872C8609CE7D8785C781D
S315000010005D680D6000230246C2F30302C0F30310BD
S315000010108B800B72CB60A307CC8048728A7288D50E
S31500001020002088E7D8785C789D78CC800246C0F3AB
S315000010300310C2F3030204330424487200208A72A8
S315000010408D80CB600C72086075E7DD781E7940886C
S315000010502C46C5F303154D72B5B2C4F3030485429D
S315000010608C728D8010D9DC889D68012A00FB04549F
S315000010700C601DD0022A0AD0B3F80130CB800022C2
S315000010800A72CA60002BCBD140F27A5053E79C78A3
S31500001090033600FB04F202EB96061844F21C03EB3F
S315000010A08203027BCA80CB600C72002AB8D1EBE7C0
S315000010B018440023027BCA800B72CB60002AAFD192
S315000010C0E2E7642037E700BFF400FE1F494D460003
S315000010D09C5100001C5000009C500000034B043043
S315000010E01B6823F820100020704700BF4001FE1F38
S315000010F0034B021D1B68002023F82200704700BF27
S315000011004001FE1F034B1A68137843F080031370E7
S31500001110002070474001FE1F034B1A6813786FF3D7
S31500001120C7131370002070474001FE1F20B1034B08
S315000011301B6803600020704701207047DC500000E8
S3150000114060B1012808D1094B1B68002040214122CB
S31500001150187119711A71704701207047034B1B688B
S3150000116040214122987099709A7070474001FE1F85
S31500001170F0B587B0002832D004461A4800230B2267
S31500001180CDE90133CDE90333059302A9C3688DF890
S31500001190042001A89847054610B1284607B0F0BDBF
S315000011A0114F029B3B6001A801F0B2FB606858B189
S315000011B0A3683E6803EB8000598813F8042B0432B9
S315000011C0834226F82210F7D12378002BE5D03A681F
S315000011D01378284643F08003137007B0F0BD01254D
S315000011E0DBE700BFA45000004001FE1F0620704749
S315000011F00620704720B1034B1B6803600020704730
S31500001200012070474C510000324A136893F82810A9
S3150000121001F03003102B0CD0202B02D00023936159
S31500001220704790F82B302C499B0931F8131059B9A7
S315000012307047038D10B403F00303284C34F81330C1
S3150000124003BB5DF8044B7047D2ED047A90F82B305F
S31500001250B8EE676A07EE901AF8EE676A03F01F03A6
S31500001260C6EE267A07EE103AB8EE477AF7EE006A2F
S3150000127037EE267A67EE877AFCEEE77A17EE903A33
S315000012809361704707EE903A4B06B8EE677A19D429
S31500001290032102EB8101D1ED016A038D5DF8044B58
S315000012A0F8EE666AC3F3052386EE876A013307EE16
S315000012B0903AFAEEEF7A67EE867AFCEEE77AC2EDBE
S315000012C0067A7047038D13F0100F0CBF032100211F
S315000012D0DFE700BFF800FE1F58510000685100000C
S315000012E0A9B1062810B430D0052812D0042834D06D
S315000012F020B3012841D0022837D0032845D1244CF9
S315000013000023E0690B60026A02F0070208E0012090
S3150000131070471F4C0023E0690B60026AC2F3027239
S3150000132090F8263003F0070304EB830300205B6884
S3150000133023FA02F20A605DF8044B7047144C086009
S31500001340E069026AC2F30232EAE7114C0023E0695F
S315000013500B60026AC2F30262E2E70D4C0023E06909
S315000013600B60026AC2F30242DAE7094C0023E06925
S315000013700B60026AC2F30212D2E7054C0023E06951
S315000013800B60026AC2F30222CAE70320D3E700BF5A
S31500001390F800FE1F38B50D784B788A78002465F37F
S315000013A00E3463F30A24CB780D7962F3061463F3E3
S315000013B002044A798B7965F3124462F31E7405467A
S315000013C063F31A64002001F071FB2C620020BDE873
S315000013D0384001F03BBB00BF10B5174BDC6994F8F1
S315000013E04120D0070CD51A6894F8263092F82820A8
S315000013F0510603F007030AD4052B0DD0032B0BD09F
S3150000140094F84130DB074FF0000008D410BD228D60
S31500001410D206F3D4052BF1D140F2971010BD01F09E
S3150000142045FB94F841306FF3000384F84130002007
S3150000143001F00CFB002010BDF800FE1F38B5084B6C
S31500001440DC690546002001F031FB94F8303065F385
S31500001450000384F83030002001F0F8FA002038BD8F
S31500001460F800FE1F084B10B5DC69002001F01EFBDA
S3150000147094F8523043F0010384F85230002001F012
S31500001480E5FA002010BD00BFF800FE1F084B10B59E
S31500001490DC69002001F00AFB94F852306FF3000378
S315000014A084F85230002001F0D1FA002010BD00BFB0
S315000014B0F800FE1F084B10B5DC69002001F0F6FAB3
S315000014C094F83E3043F0800384F83E30002001F06B
S315000014D0BDFA002010BD00BFF800FE1F084B10B576
S315000014E0DC69002001F0E2FA94F83E306FF3C7138E
S315000014F084F83E30002001F0A9FA002010BD00BF9C
S31500001500F800FE1F084B10B5DC69002001F0CEFA8A
S3150000151094F8533043F0010384F85330002001F06F
S3150000152095FA002010BD00BFF800FE1F084B10B54D
S31500001530DC69002001F0BAFA94F853306FF3000327
S3150000154084F85330002001F081FA002010BD00BF5E
S31500001550F800FE1F38B5084BDC690546002001F08F
S31500001560A5FA94F8243065F3061384F82430002095
S3150000157001F06CFA002038BDF800FE1F03788B429C
S3150000158014D343788B4211D383788B420ED3C3781E
S315000015908B420BD343798B4208D30379994205D802
S315000015A0807981428CBF0520002070470520704756
S315000015B030B583B000F0A0FF1A4B01901D68186883
S315000015C010F0020028D0DDED017A174CF8EE677AAC
S315000015D0F7EE006A86EEA77A0020186094F82320BA
S315000015E0D1B2DFED127ADFED126A27EE277AC6EE68
S315000015F0877AFCEEE77A17EE902A013AB2F1807FFD
S315000016000CD25A6001F0F001F025072284F823502D
S3150000161098601A6084F8231003B030BD12201D6054
S3150000162003B030BD10E000E000ED00E00024744996
S3150000163000401C4608B1FFF7BBBF0320704700BF40
S31500001640052827D0144B042870B5DC6903D194F81B
S315000016508034DB071BD4054600200E4601F026FA2F
S3150000166094F83E306FF3C71384F83E3094F83E305A
S3150000167066F3061384F83E3094F83E3065F30203B1
S3150000168084F83E30002001F0E1F9002070BD4FF4EF
S31500001690C87070BD03207047F800FE1F30B583B0D8
S315000016A0002953D00246002870D0414CE36993F8D4
S315000016B0AA0010F0010063D193F8A000196A25680A
S315000016C0C1F302318DF80010196AC1F302218DF8B9
S315000016D00110196AC1F302118DF80210196AC1F3DB
S315000016E002018DF80310196AC1F302418DF8041046
S315000016F0196AC1F302718DF805101B6AA968C3F354
S31500001700026300F003008DF8063009B1032840D0CB
S31500001710EB680BB1022844D01146012000F0B0FF5F
S31500001720E469002001F0C2F994F8403043F08003E8
S3150000173084F8403094F8403043F0010384F8403098
S31500001740002001F083F9002003B030BD184BDD699D
S3150000175095F84130DB0715D408460C4601F0A6F98A
S3150000176095F8403064F3000385F8403095F8403032
S3150000177064F3C713204685F8403001F067F9204628
S3150000178003B030BD4FF4CB7003B030BD012003B0C1
S3150000179030BD29696846FFF7F1FE0028BCD0052058
S315000017A0EEE769696846FFF7E9FE0028F7D1B3E777
S315000017B0F800FE1F38B50B4B04461B68002093F853
S315000017C0225001F073F994F88034DB0705D594F8BC
S315000017D0813423EA050384F881340020BDE83840CB
S315000017E001F034B9F800FE1F062070470620704746
S315000017F0062070470620704728B321B3134BDB69D8
S3150000180093F82620C2F3020202701A6AC2F3023269
S315000018100A701A6AC2F302224A701A6AC2F30212E4
S315000018208A701A6AC2F30202CA701A6AC2F30242C4
S315000018300A711A6AC2F302724A711B6AC3F302631F
S315000018408B71002070470120704700BFF800FE1F13
S3150000185005292ED8DFE801F00A11181F260390F893
S315000018602A0000F0010080F00100704790F8360071
S3150000187000F0010080F00100704790F8380000F099
S31500001880010080F00100704790F8900400F001001C
S3150000189080F00100704790F8320000F0010080F0FF
S315000018A00100704790F8800400F0010080F001000C
S315000018B070470020704700BF30B5A1F1020483B025
S315000018C04FF6FF73B4FA84F40546640901930A4A95
S315000018D004E0019B43B1019B013B01932946D0697A
S315000018E0FFF7B6FFA042F4D1019B002B0CBF4FF4CB
S315000018F0CD70002003B030BDF800FE1F70B5344C2B
S3150000190086B0204600F0AAFE06A800230322009314
S3150000191000F8182D2F4ACDE90233CDE9043302A988
S31500001920D3689847029DE5614FF6FF73019395F8DA
S315000019303630DA0705D50BE0019B33B1019B013B3D
S31500001940019395F83C30DB07F6D5019B002B39D087
S31500001950002001F0ABF895F8A530062262F30203E9
S3150000196085F8A530002001F071F82368E669D3E90F
S31500001970061200254FF6FF732261174A0193284687
S315000019804FF40043C4E902236160A561636101F07D
S315000019908DF896F8803443F00103284686F88034A3
S315000019A001F054F801210420FFF786FF054648B9E7
S315000019B0E36918461A6A93F82630FFF7FBFE2846B5
S315000019C006B070BD4FF4CD75284606B070BD00BF99
S315000019D0F800FE1FA450000000127A00052828D83F
S315000019E038B5524DEA6992F8263003F0070398425B
S315000019F01CD0052B12D092F82A30DB070ED5012811
S31500001A00044618D192F84030DB097DD110462146B4
S31500001A10FFF71EFF00283BD1002038BD2B6893F846
S31500001A2028305C062DD403239842E8D140F2911069
S31500001A3038BD0320704710462146FFF709FF0028EE
S31500001A40EAD0032CED6935D0052C2CD0002C49D1D9
S31500001A5095F83C30D9072AD5204601F027F895F8A5
S31500001A60363043F0010385F83630002000F0EEFFF3
S31500001A7020460121FFF720FF0028CDD04FF4CD707E
S31500001A8038BD138D13F0100F0CBF03230023CBE7D3
S31500001A900020ED6901F00AF895F8383043F00103AB
S31500001AA085F83830E1E795F83C309B0610D440F2D3
S31500001AB0931038BD95F83C301A07F8D5002000F091
S31500001AC0F5FF95F8323043F0010385F83230CCE764
S31500001AD0002000F0EBFF95F82A3043F0010385F86B
S31500001AE02A30C2E7002000F0E1FF042CBDD801A394
S31500001AF053F824F05F1A0000991A00001D1B00001D
S31500001B00C31A00000F1B000040F2951038BD95F86F
S31500001B10803443F0010385F88034A6E795F89034C5
S31500001B2043F0010385F890349FE700BFF800FE1FDD
S31500001B3005281DD808B5431E012B014608D90428DF
S31500001B4006D068B1032815D005281FD0002008BD8F
S31500001B50194BD869FFF77CFE38B140F2911008BDE9
S31500001B60154AD069FFF774FEF0B94FF4C87008BD86
S31500001B7003207047104AD069FFF76AFE0028F4D0A8
S31500001B80D36993F83C301B0713D40AE00A4AD0699C
S31500001B90FFF75EFE0028E8D0D36993F83C3099063B
S31500001BA007D440F2931008BDD36993F83C30DA07A6
S31500001BB0F7D54FF4C97008BDF800FE1F70B506468C
S31500001BC04FF6FE7440F2931501E0013C05D0304615
S31500001BD0FFF7AEFFA842F8D000B970BD6FF4C87326
S31500001BE0C318012B98BF002070BD00BF30B583B06D
S31500001BF04FF6FF730446012001930D4600F056FF91
S31500001C0002A8002300F8053D00F0EEFB94F8AA3088
S31500001C10D90604D494F8A030C3F3001353B1019B42
S31500001C20013B0193019B002BF0D1012000F00EFF38
S31500001C3003B030BD94F8AA2063F300024FF6FF7399
S31500001C4084F8AA20019302E0019B013B019394F8DA
S31500001C50AA30DA0603D494F8A030DB0602D5019B3D
S31500001C60002BF1D194F8A030042D0CBF43F00303F0
S31500001C7065F3010384F8A0304FF6FF73019302E089
S31500001C80019B013B019394F8AA30D80603D494F83B
S31500001C90A030D90602D5019B002BF1D194F8AA30C9
S31500001CA0042D0CBF43F001036FF3000384F8AA3040
S31500001CB04FF6FF73019302E0019B013B019394F8F9
S31500001CC0AA30DA0603D494F8A030DB0602D5019BCD
S31500001CD0002BF1D19DF8030000F09AFB012000F0E3
S31500001CE0B5FE03B030BD00BF0428124B0BD002284E
S31500001CF009D01A6892688A4204D3D86990F82A30C3
S31500001D00DB0714D47047D86990F82A20D207F0D59B
S31500001D1090F83220D207ECD590F83620D207E8D5D5
S31500001D2090F83820D207E4D50421FFF75FBF0321DE
S31500001D30FFF75CBFF800FE1F052837D82DE9F843EA
S31500001D40AE4E2DED028B0D4604460146F069FFF7B7
S31500001D507FFD0746002842D1042C57D0012C44D0E1
S31500001D6034B3032C60D0052C00F0B880F56900F080
S31500001D709DFE032C00F09C80042C4ED0022C3ED1FC
S31500001D8095F890346FF3000385F89034002000F046
S31500001D905DFE20460221FFF78FFD002814BF4FF499
S31500001DA0CD700020BDEC028BBDE8F88303207047A0
S31500001DB0F56995F83C30DB0700F1818095F8AA308B
S31500001DC0DF0700F1858095F8A030002000F06EFE58
S31500001DD095F836306FF3000385F83630D6E7F069AC
S31500001DE0FFF712FA40F29110DCE7F56995F8AA3090
S31500001DF0DA0767D495F8A030002000F057FE95F872
S31500001E0038306FF3000385F83830BFE7F069FFF725
S31500001E10D1FC3846F56900F049FE95F880346FF339
S31500001E20000385F88034B1E7F76997F83C30180766
S31500001E3045D497F8AA30D90700F1BD8097F8A030AD
S31500001E403168002091F8275091F8208091F8219070
S31500001E5000F02CFE97F8133405FA09F25BB25A40EB
S31500001E6002EA08025340DBB287F81334002000F080
S31500001E70EDFDF569002000F019FE95F813346FF3B7
S31500001E80861385F81334002000F0E0FDF569002084
S31500001E9000F00CFE95F8A230052262F3030385F8E4
S31500001EA0A230002000F0D2FD0020F56900F0FEFD12
S31500001EB095F832306FF3000385F8323066E740F26A
S31500001EC093106FE728460321FFF790FEF56993E725
S31500001ED028460321FFF78AFEF56976E7002D70D0C4
S31500001EE03368697893F8242091425FD893F82620C6
S31500001EF095ED017A07EE902AF8EE677AF4EEC77A46
S31500001F00F1EE10FA52D493F8253007EE903AF8EE37
S31500001F10677AB4EEE77AF1EE10FA47D42978032906
S31500001F2001D0002942D1F069FFF792FC00284AD07F
S31500001F30F76997F83C309A06C1D497F8AA30DB07C0
S31500001F4056D497F8A03095F80080002000F0AEFD3A
S31500001F503B8DB8F1030F0CBF6FF3041343F010036E
S31500001F603B85002000F072FD3368F76993F828304E
S31500001F7095F8018003F03003102B41D0202B53D06D
S31500001F8095ED018A202B21D0F069FFF73DF900215C
S31500001F90F069FFF72BFEF569002000F087FD95F844
S31500001FA02A306FF3000385F82A30EFE6BDEC028B8A
S31500001FB00320BDE8F88338462146FFF717FEF76988
S31500001FC03EE70120EEE64FF4CA70EBE6002000F093
S31500001FD06DFDFCEEC87A97F82B2017EE903A013B80
S31500001FE063F3040287F82B20002000F02FFDCBE7D7
S31500001FF038460321FFF7FAFDF769A4E7F800FE1F4C
S31500002000214B002033F8189000F050FD3B8D69F30A
S3150000201001033B85002000F019FD336893F8283052
S3150000202003F03003202B13D1184B002033F818800F
S3150000203000F03CFD97F82B3068F3871387F82B30B8
S31500002040002000F003FD336893F8283003F03003D6
S31500002050102BF76995ED018A94D1002000F026FD3A
S3150000206078EE087A3A8DFCEEE77A002017EE903A81
S31500002070013B63F30D223A8500F0E8FC336893F8E0
S31500002080283003F030037DE7605100005051000016
S31500002090012814D0022801D000207047052938B540
S315000020A015460C460ED0291D2046FFF745FE20B1E9
S315000020B040F29113984200D038BD002038BD084642
S315000020C0FFF78CBC11461079FFF736FE18B140F2C7
S315000020D091139842F0D12879FFF770FD0028E2D0DD
S315000020E0EAE700BF2DE9F047052884B000F28D80AD
S315000020F0002900F08F800B788A799342C0F08580A2
S315000021004C789C42C0F08180CC789C427DD84B793B
S3150000211093427AD30C79944277D304280C46054629
S315000021207DD05C4FF86990F8263003F007039D4296
S3150000213007D0002D40F0898090F83C30D90740F157
S315000021408D80036A036A036A036A036A036A036A81
S315000021500021C3F30268FFF749FD07EB8502A0796A
S315000021605368F969C340002201938DF800208DF869
S315000021700C200A6A91F8263003F0070307EB830365
S31500002180C2F302625B686846D340029300F0C4F96A
S31500002190064600283AD1A379D7F81C90434505F0A6
S315000021A0070A5ED921464846FFF7F4F8FC6930462F
S315000021B000F07CFC94F826306AF30203304684F87B
S315000021C0263000F043FCFB691A6A93F8263003F0C8
S315000021D0070307EB8307C2F302627B686846D340B6
S315000021E0012202938DF8002000F096F9064668B9A0
S315000021F000F082F9284B1860002848D0014628468E
S31500002200FFF772FDFFF7D4F900E00326304604B06D
S31500002210BDE8F0870126304604B0BDE8F08792B9E4
S315000022208BB91C4FF86990F84030DB090BD190F858
S31500002230263003F00703042B83D02946FFF708FB5B
S3150000224028B3F8697DE70526E0E7032D19D0052DAB
S31500002250F3D190F83C309B063FF573AF40F29316EE
S31500002260D4E700F023FC99F826306AF302033046DF
S3150000227089F8263000F0EAFB2146F869FFF78AF86C
S31500002280A1E790F83C301A073FF55BAFE6E74FF45D
S31500002290C876BBE7F800FE1F9001FE1F2DE9F04F40
S315000022A083B0002853D0DFF83C910778D9F81C306A
S315000022B0467D93F826801A6A1A6A1A6A1A6A1A6A90
S315000022C01A6A1B6A027DC37DC17C8DF801208DF8D8
S315000022D00330827D037E8DF80060052F08F0070825
S315000022E08DF802108DF804208DF805302AD802AA40
S315000022F03A4412F8082C012A24D0022B08D102797C
S31500002300052A1FD802A90A4412F8082C012A19D056
S315000023108246524618460521FFF7BAFE0446D8B94A
S31500002320054640F2911BE9B230465246FFF7B0FE31
S315000023300135044608B1584505D1052D12D01DF8C2
S315000023400560F0E70324204603B0BDE8F08F0124C2
S31500002350204603B0BDE8F08F40F291139842F2D1C7
S315000023600025DEE73846FFF729FC04460028EAD1B7
S31500002370042F19D025460AF10C013846FFF7B2FEA4
S3150000238004460028DFD1474505D002AB434413F885
S31500002390083C012B1DD0002DD5D000F0ADF801462C
S315000023A03846FFF7A1FCCEE7D9F81C3093F82A206F
S315000023B0D00715D593F83220D10711D593F83620DA
S315000023C0D2070DD593F8385005F0010585F00105C3
S315000023D0D1E74046FFF702FB0028DCD00446B2E70F
S315000023E00125C8E7F800FE1F68B1084AB2F80011D7
S315000023F092F80031C1F300016FF300030170002071
S3150000240082F8003170470120704700BF00C00140CC
S31500002410104991F8043143F0010381F80431B1F811
S315000024200431DB070AD54FF0FF3300E07BB1B1F88A
S315000024300421D20703F1FF33F8D443B1054A92F8D9
S31500002440003160F3000382F8003100207047142049
S31500002450704700BF00C0014070B5254D82B02B68A3
S3150000246098470120FFF7D4FF0021AE680320B0474C
S315000024700121204AEC698DF80110032301928DF8A1
S3150000248000300320A047B0F5C97FFAD16946052080
S31500002490B04728B140F29113984201D000BEEC69D2
S315000024A00520A047B0F5C97FFAD1022301220020FA
S315000024B08DF806008DF801308DF802308DF8053064
S315000024C069468DF800208DF803208DF804202B69CD
S315000024D00520984700B100BE2B6E04209847AB6AD2
S315000024E001209847EB6A9847AB6D984702B070BDDC
S315000024F0E05000000000A04100B583B002A900230F
S3150000250041F8043D034B06209B699847019803B0A8
S315000025105DF804FBE05000000378C3B1012B14D131
S315000025208368454A017B93424AD9444A93425CD91F
S31500002530434A92F81C3103F00703994205D092F8FA
S315000025401C3161F3020382F81C3100207047426897
S3150000255039498A4253D93B4B70B4F1251D71197A1A
S31500002560364E41F004011972197A41F008011972C8
S31500002570197A41F001011972197AF02441F0020129
S31500002580B24219721C7105D91D71197A41F01001F8
S3150000259019721C712C4B2A499A4294BF01230223BB
S315000025A0037391F81C2102F007029A4205D291F8B2
S315000025B01C2163F3020281F81C21002070BC7047C5
S315000025C0204BF1221A711A7A6FF382021A721A7A62
S315000025D06FF3C3021A721A7A6FF300021A721A7A2A
S315000025E0F0206FF341021A721871164BF1221A711C
S315000025F01A7AF0206FF304121A72187198E71349C9
S315000026008A4205D80E4A037392F81C31002070479F
S315000026100D4B0B499A4294BF01230223037391F891
S315000026201C2102F007029A428FD291F81C2163F313
S31500002630020281F81C2188E7000E270700C2EB0B77
S3150000264000C00140002000400068890900B4C404AD
S31500002650037843F003030370704700BF014B036028
S31500002660704700BF70510000044B002103F1300297
S3150000267043F8041B9342FBD1704700BF4401FE1F81
S31500002680024B43F820100020704700BF4401FE1F94
S3150000269008B56F4BB3F84031D90700F1CB806C4BCE
S315000026A0B3F840319A0700F1B880694BB3F840316E
S315000026B05B0700F1A580664BB3F84031180700F1BF
S315000026C09280634BB3F84031D9067FD4604BB3F8A0
S315000026D04001C0F3801000286CD15D4BB3F8403147
S315000026E01A065AD45A4BB3F84031DB0548D4584B36
S315000026F0B3F84031980536D4554BB3F840315905F7
S3150000270024D4534BB3F840311A0512D4504BB3F8C6
S315000027104031DB0400D408BD4E4BDB6A0BB10B2005
S3150000272098474B4AB2F8303143F48053A2F830311F
S3150000273008BD484B9B6A0BB10A209847444AB2F839
S31500002740303143F40063A2F83031DFE7414B5B6A76
S315000027500BB1092098473E4AB2F8303143F4806302
S31500002760A2F83031CDE73B4B1B6A0BB108209847E6
S31500002770374AB2F8303143F40073A2F83031BBE780
S31500002780344BDB690BB107209847314AB2F8303138
S3150000279043F48073A2F83031A9E72E4B1B680BB1C6
S315000027A0002098472A4AB2F8303143F08003A2F855
S315000027B0303197E7274B5B6803B19847244AB2F854
S315000027C0303143F04003A2F8303186E7214B9B6954
S315000027D00BB1062098471E4AB2F8303143F0100379
S315000027E0A2F8303172E71B4B5B690BB105209847A5
S315000027F0174AB2F8303143F00803A2F8303160E7E7
S31500002800144B1B690BB104209847114AB2F83031BA
S3150000281043F00403A2F830314DE70E4B9B680BB131
S31500002820022098470A4AB2F8303143F00203A2F870
S3150000283030313AE7074BDB680BB103209847044A6F
S31500002840B2F8303143F00103A2F8303127E700BF78
S31500002850006000404401FE1F114B01785A5C02F0F3
S315000028601F03920630B4448845780DD501222B29E2
S3150000287002FA03F00ED0332904D1012D04BF01332F
S3150000288005FA03F030BC70472C441B1B012098400E
S3150000289030BC7047072CF5D9013302FA03F0F1E793
S315000028A09C5500000378452B1CD870B5164CE55C8A
S315000028B0FF2D26D014460E46FFF7CEFF134BAA096E
S315000028C053F8223086B1AA0600D5D4B1EFF31082B0
S315000028D0012181F3108819680843186082F3108873
S315000028E0002070BD01207047EFF31082012181F3B3
S315000028F01088196821EA0000186082F310883046B3
S3150000290070BD032070BD00BF9C550000E45500005B
S3150000291000221146FFF7C6BF034638B1054A92E8C2
S315000029200300002283E80300104670470122104688
S31500002930704700BF0C560000A0F101000028FBD133
S31500002940704700BF2DE9D04301FB00F4FFF7D4FD2B
S315000029504FF47A71A4FB018900274FF0FF364F45EB
S3150000296008BF46450E4BB3FBF0F007D3B8FBF0F0BB
S31500002970800890B1BDE8D043FFF7DEBF8000B4FB0E
S31500002980F0F0A0FB01018F4208BF8642F1D24FF062
S31500002990FF30BDE8D043FFF7CFBFBDE8D08300BF0F
S315000029A000CA9A3B0B4A0C4B10B49B1A0B4CDB0823
S315000029B0236063B10A4800219388C3F3090340F8F2
S315000029C0043B236801318B4202F10802F4D85DF81A
S315000029D0044B704700050000000500007401FE1F4F
S315000029E000630040F0B5134E134C1449144A154BBE
S315000029F0DFF854C00E60A41BA4081460C3F800C01E
S31500002A008CB106EB840735464FF0000E55F8040BE3
S31500002A103246002352F8041B884205D001339C42FB
S31500002A20F8D1BD42F2D1F0BDBD420CF803E0EDD1C4
S31500002A30F9E700BF00050000B00600007C01FE1F9C
S31500002A407801FE1F8001FE1F7000FE1FEFF310814C
S31500002A50012383F31088124B33F8102092B22AB167
S31500002A6033F81020013A92B223F8102033F81030D0
S31500002A709BB28BB90B4A10B40B4CB2F8FE3334F848
S31500002A80100043F4254323EA0003A2F8FE3381F342
S31500002A9010885DF8044B704781F31088704700BFBB
S31500002AA08401FE1F00E00140F855000030B4EFF34A
S31500002AB01081012383F310880C4A32F810309BB240
S31500002AC053B90B4C0B4DB4F8FE3335F8105043F4A4
S31500002AD025432B43A4F8FE3332F8103001339BB262
S31500002AE022F8103081F3108830BC70478401FE1F35
S31500002AF000E00140F8550000024B00221A805A807F
S31500002B009A8070478401FE1F0C4A08B513684BB1C2
S31500002B10033020F003000A491844884205D81060A3
S31500002B20184608BD074B1360F2E702F063F90C2361
S31500002B3003604FF0FF33184608BD00BF8C01FE1F2F
S31500002B40C819FE1FC809FE1F00BE704708B500F071
S31500002B5007F800F04FFAFEE7704700BFFFFFFFFFE0
S31500002B60434AD2F8883043F4700370B50020C2F8A7
S31500002B708830FFF7F1FFFFF777FD3E4B1B6898475C
S31500002B80FFF7BAFFFFF768FC3B4A3C4B3C481B6823
S31500002B900024148098473B493B4B8B4204D0224685
S31500002BA003F8012D9942FBD13848394B984206D09B
S31500002BB0384A12F8011B03F8011B8342F9D1364B40
S31500002BC036493748374A00244FF425459C801D80F6
S31500002BD09860DA60B1F82021012542F48052A1F80C
S31500002BE020219D80FFF788FC2F4B18602846FFF7B1
S31500002BF0B3FF2E4D2E4B5B1BA3424FEAA30605DD0A
S31500002C00013455F8043B9847A642F9DCFFF7EAFE83
S31500002C10FFF7C8FE274B284C1B6828489847D4E97D
S31500002C200001D4E90023584002F002F9D4E9005625
S31500002C300BA1D1E900012A1846EB0103C4E90023E0
S31500002C4009A1D1E90001D4E9005685EA000286EA25
S31500002C500103C4E900230020BDE8704000F030B84D
S31500002C601654E7A1E34FE6F437B8929E2B52ADFD1A
S31500002C7000ED00E0A45000003C01FE1FD84F00000C
S31500002C80605600002001FE1FC809FE1FDC00FE1F63
S31500002C900000FE1F6C5A0000000D0040006000405E
S31500002CA0C819FE1FC721FE1F9001FE1F6800FE1FE8
S31500002CB06C00FE1FC05000001801FE1F00560000E9
S31500002CC000F040B882B04FF0C84300210091009A4E
S31500002CD05A6961F300025A619A6AC8B1202161F308
S31500002CE00F229A629A6A4FF0C04142F080029A62BD
S31500002CF00A68009240F6FF72019204E0019A013AD6
S31500002D000192019A12B19A6A5106F7D502B070473C
S31500002D1042F47F429A629A6A4FF0C04160F3C7124A
S31500002D209A620A68009240F6FF72019205E0019AE3
S31500002D30013A0192019A002AE8D09A6A5206F6D41C
S31500002D4002B07047F8B54A4A11684FF0C8440023EC
S31500002D506FF38611102011602063A3612362636301
S31500002D60C4F80438A26863F30402A2606369FF2210
S31500002D7043F00103636122616369662243F0010344
S31500002D80636122616369992243F0010363612261F1
S31500002D90636943F00103636101212320FFF7D2FD3C
S31500002DA09F2323612269334BD2B21A702169C9B2BB
S31500002DB059702069C0B298706569EF2A45F001051F
S31500002DC0656103D000221A809A70F8BD4029F9D1B6
S31500002DD01728F7D10522226120696169264B41F047
S31500002DE0010135266161266121691970616941F029
S31500002DF001016161A56A042161F30305A5626568A5
S31500002E00502761F3030565602761656945F0010593
S31500002E1065611D7845F002051D700127C0B2276166
S31500002E2020611878206160693843606121616169B9
S31500002E3039436161216862F30201216022612269DE
S31500002E4062693A436261266122691A7063693B438B
S31500002E506361236843F040032360A369DB07FCD466
S31500002E600120FFF72FFF63696FF300036361F8BD6D
S31500002E70007004409401FE1F9801FE1F08B500F083
S31500002E8087F8BDE8084000F05DB900BF30B51F4DBA
S31500002E901F492B681F485C1C89B0342300222C6014
S31500002EA000F014FA60BB4FF448733822CDE90032C3
S31500002EB019491A4B1A48022200F0A4FAD8B901237C
S31500002EC0B8204FF48061174A0092CDE90530CDE96C
S31500002ED00113CDE90333144A14491548002300F0C1
S31500002EE0ADFB08B909B030BD1148002109B0BDE8F5
S31500002EF0304000F025B80021094800F021F8DEE74F
S31500002F000021044800F01CF8CDE700BF1006FE1FA4
S31500002F101C560000BC05FE1F285600009C01FE1F23
S31500002F208405FE1FC821FE1F7D2E000034560000BA
S31500002F30CC04FE1F704700BFFFF7FCBF704700BF01
S31500002F4000BE7047F8B50E4F0E4E0F4900240546D9
S31500002F501C2301220D483C60347000F0FBFA18B1C6
S31500002F6021460A48FFF7ECFFFFF790FF00F086F8CE
S31500002F7000F0BAF800F04CF82846FFF7DFFFF8BD7E
S31500002F801006FE1FF005FE1F4C560000F405FE1F3E
S31500002F9038B54FF0FF31144800F02EFBF0B9134B53
S31500002FA01A7802B138BD124C01221A70FFF7C4FF1D
S31500002FB02368013B2360002BF4D00B4D04E023680B
S31500002FC0013B2360002BEDD0284600F02BFB0028A8
S31500002FD0F5D000212846FFF7B3FFF0E700210248AD
S31500002FE0FFF7AEFFDBE700BFF405FE1FF005FE1F8F
S31500002FF01006FE1F08B572B600F000FC002008BDE2
S3150000300008B5FFF7C5FFBDE8084000F0ABB800BF44
S3150000301070B5114D114A2B6888B000240092012228
S3150000302098184FF48061B826CDE90526CDE902222D
S315000030300191286004942346094A0A490A4800F087
S31500003040FDFA08B908B070BD0748214608B0BDE8CA
S315000030507040FFF775BF00BF1006FE1FC825FE1F94
S3150000306001300000E85900001406FE1F08B5FFF7FE
S315000030708FFFBDE8084000F089B800BF70B5114D5C
S31500003080114A2B6888B0B8210126981900240092AD
S31500003090069108224FF48061CDE902220191286051
S315000030A0CDE904462346094A09490A4800F0C6FA0A
S315000030B008B908B070BD0748214608B0BDE87040A1
S315000030C0FFF73EBF1006FE1FC829FE1F6D30000029
S315000030D0F4590000CC06FE1F08B5FFF759FFBDE8FE
S315000030E0084000F0A3B800BF70B5114D114A2B6817
S315000030F088B0B8210126981900240092069108226A
S315000031004FF48061CDE9022201912860CDE90446A1
S315000031102346094A09490A4800F090FA08B908B056
S3150000312070BD0748214608B0BDE87040FFF708BFEC
S315000031301006FE1FC82DFE1FD9300000FC590000E6
S315000031408407FE1F00B583B06846FFF7E5FBBDF8B0
S31500003150003003B9FEE7012001F0CEF8012001F0AE
S31500003160CBF8F8E730B583B002AC002344F8043D51
S31500003170054D4FF0FF322146284600F0ABF90028F6
S31500003180F7D003B030BD00BF8405FE1F70B584B014
S3150000319002A8FFF7C1FB224B224C5D68224E00239A
S315000031A0019328E0204600F0E7F8039A2B6A0146CF
S315000031B0508800292FD19847039A2B6A108801213D
S315000031C098474FF0FF3201A9304600F0A3F900BB43
S315000031D0019B28200133019301F08EF8204600F070
S315000031E0F5F8B0B9204600F0F1F8014688B9039A1F
S315000031F02B6A108898474FF0FF31204600F0BCF844
S315000032004FF0FF310028CDD0039A2B6A5088012158
S31500003210984704B070BD0121984704B070BD00BF47
S3150000322044560000BC05FE1F8405FE1F70B584B021
S3150000323002A8FFF771FB224B224C5D68224E002349
S31500003240019328E0204600F097F8039A2B6A01467E
S31500003250508800292FD19847039A2B6A908801211C
S3150000326098474FF0FF3201A9304600F053F900BBF2
S31500003270019B3C200133019301F03EF8204600F00B
S31500003280A5F8B0B9204600F0A1F8014688B9039A1E
S315000032902B6A908898474FF0FF31204600F06CF873
S315000032A04FF0FF310028CDD0039A2B6A50880121B8
S315000032B0984704B070BD0121984704B070BD00BFA7
S315000032C044560000BC05FE1F8405FE1F08B1342BC2
S315000032D001D01C2070472DE9F041EFF3108372B640
S315000032E0214E34680134346083F310881F4C204B20
S315000032F025681C684DB1A04207D0002301E0A0421A
S315000033002DD00133AB42246AF9D1054617468846CB
S31500003310EFF3108372B630680138306083F310889B
S3150000332001F01AF8A54203D0012F04D91F2000E0AE
S315000033301C20BDE8F081EFF305830E4A11680B43AC
S3150000334006D0EFF3058312681343B3F1F03F08D3B9
S315000033503A4641462846BDE8F04100F073BA0446B5
S31500003360D3E71320E5E700BF0809FE1F4008FE1F4C
S315000033704408FE1F0000FE1F18B1124B02689A4255
S3150000338001D01C20704710B481B90F4AEFF30583B2
S315000033901468234306D0EFF3058312681343B3F191
S315000033A0F03F0DD35DF8044B00F07CBAEFF30583D4
S315000033B0054A14682343E9D004205DF8044B70479E
S315000033C01320FAE74554554D0000FE1F90B10B4BF4
S315000033D002689A420ED1EFF30583094A11680B433E
S315000033E006D0EFF3058312681343B3F1F03F03D31E
S315000033F000F038BB1C207047132070474554554DCC
S315000034000000FE1F2DE9F047DDE9089400284CD0A6
S31500003410382C4AD1EFF3108472B6DFF8B4C0DCF86A
S3150000342000500135CCF8005084F31088254D264C09
S315000034302E6824684EB1A04207D0002501E0A042C4
S3150000344039D00135B542246BF9D105461F461646DB
S315000034508846EFF3108372B6DCF80020013ACCF808
S31500003460002083F3108800F077FFA5421DD027B314
S31500003470731E0F2B1CD8B6EB990F19D8EFF30583E3
S31500003480124A11680B4306D0EFF305831268134303
S31500003490B3F1F03F13D3CDF820903B463246414678
S315000034A02846BDE8F04700F0E7BB0920BDE8F087F5
S315000034B00520BDE8F0870446C7E70320F6E713209A
S315000034C0F4E700BF4808FE1F6808FE1F0000FE1F45
S315000034D00809FE1FB0B110B40C4B04689C420BD116
S315000034E091B12AB1EFF30583094C2468234307D130
S315000034F05DF8044B00F0F8BB09205DF8044B7047FB
S315000035000420FAE7092070470320F6E75545555190
S315000035100000FE1FB0B110B40C4B04689C420BD1E6
S3150000352091B12AB1EFF30583094C2468234307D1EF
S315000035305DF8044B00F0C4BC09205DF8044B7047ED
S315000035400420FAE7092070470320F6E75545555150
S315000035500000FE1F08B11C2B01D00C2070472DE97E
S31500003560F041EFF3108372B61F4E346801343460B5
S3150000357083F310881D4C1E4B25681C684DB1A04274
S3150000358007D0002301E0A04229D00133AB42646991
S31500003590F9D1054690460F46EFF3108372B63068B0
S315000035A00138306083F3108800F0D6FEA54213D0B0
S315000035B0EFF305830F4A11680B4306D0EFF305833B
S315000035C012681343B3F1F03F0BD3424639462846FF
S315000035D0BDE8F04100F008BD0C20BDE8F0810446CE
S315000035E0D7E71320F9E700BF0809FE1F5C08FE1F96
S315000035F04C08FE1F0000FE1F60B1084B02689A428D
S3150000360008D129B1EFF30583054A1268134303D1A4
S3150000361000F014BD0C20704704207047414D4553FF
S315000036200000FE1F18B10268034B9A4201D00C201D
S31500003630704700F045BD00BF414D45532DE9F04FA1
S3150000364085B0DDE910B40094129C0294139C019499
S31500003650DDE90E78149C002871D0B82C6FD1EFF3F9
S31500003660108472B6DFF82091D9F800500135C9F8F8
S31500003670005084F31088414D414CD5F800E0246891
S3150000368008F1FF3CBC44BEF1000F16D0A04214D096
S3150000369000268A46E168B9425FD82569BD425CD9F1
S315000036A001250027614506F101064CD821696145CF
S315000036B049D9D4F888405146002705461E46924609
S315000036C00391EFF3108372B6D9F80020013AC9F8D6
S315000036D0002083F3108800F03FFEA5422FD0002F74
S315000036E03FD0BAF1000F3CD0B8F1C70F37D9BBF1C4
S315000036F01F0F3AD8009B9B453BD3019B012B36D825
S31500003700EFF305831F4A11680B4306D0EFF30583D9
S3150000371012681343B3F1F03F2DD3019B1393029B21
S315000037201293009B0399CDE910B3524633462846BF
S31500003730CDE90E7805B0BDE8F04F00F0EBBC0E20E9
S3150000374005B0BDE8F08F7645D4F8884003D0A04296
S3150000375001D0002D9ED05146AFE70025A2E70520F7
S31500003760EEE7032005B0BDE8F08F0F20E8E7102054
S31500003770E6E71820E4E71320E2E700BF0009FE1F92
S31500003780F808FE1F0000FE1F0809FE1FF8B500F02E
S315000037905DFD0E4D0E4C0F4F0F4E00F013FF0F4800
S315000037A00F49104A00232B60236003600B601360EF
S315000037B00D4D0E4C0E480F490F4A3B6033602B608F
S315000037C0236003600B601360F8BD00BF6808FE1F2E
S315000037D04808FE1F4C08FE1F5C08FE1F3C08FE1F23
S315000037E06008FE1F6408FE1F5808FE1F5008FE1FD3
S315000037F06C08FE1F4408FE1F4008FE1F10B50E4C45
S31500003800236813F10F3F0AD04FF0F033236000F026
S3150000381053FFFFF7BBFF094A136801331360084AD9
S315000038204FF0F03310682360FFF78CFB0023236012
S31500003830BDE8104000F086BF0000FE1F0809FE1F0D
S315000038405408FE1F70B50D4614460021342201F0BF
S31500003850E6FA034645600461EFF3108472B60C493C
S315000038600C480A680C4E0D4D1E6005600C485AB196
S315000038700068456A43622B62C3E9080501320A60A3
S3150000388084F31088002070BDC3E908330360F5E7B0
S315000038904008FE1FF008FE1F4554554D894A00009A
S315000038A04408FE1FF8B5EFF3108572B63B4A8368ED
S315000038B01468E3B90123C0E90234A4B10369012BFA
S315000038C003D1E36A436120238362D4F8A830002B36
S315000038D042D01A6B1863D062C0E90B32D4F8A43018
S315000038E00133C4F8A43085F310880020F8BDC268FF
S315000038F0A24227D061B32A4E33684BBBD4F8B470CA
S31500003900C369E0660137C4F8B470264FA76643BBA7
S315000039108461C4E91C4437680133C36101374FF041
S315000039200D0C0123E1643760C4F830C0A36385F34E
S3150000393010880369012B1ED0204600F0A1FDD4F8A3
S315000039408400F8BD0133836085F310880020CDE73D
S3150000395085F310881D20F8BDC4F8A800C0E90B0047
S31500003960BCE787692767D7F874C0C4F874C0CCF879
S3150000397070407C67CFE7E16A836A8B42D2F8A03059
S3150000398088BF81629942D36A38BFC2F8A0109942B3
S31500003990D2D2104600F008F8CEE700BF0C09FE1F91
S315000039A00809FE1F094A00002DE9F8430446EFF313
S315000039B0108672B6026B52B1D0F89C20C1628A4260
S315000039C028BF0A46C26386F31088BDE8F8830D4611
S315000039D02149DFF88C900B68C264023303220B6026
S315000039E00123D9F8007002638363D0F82C8086F334
S315000039F0108800F045FDEFF3108372B6D4F89C20D2
S31500003A00E562AA4228BF2A46E26383F3108820466D
S31500003A1000F0C0FCEFF3108272B6D9F800309C4279
S31500003A2007D0216B29B9D96AE36A8B4205D8BC4213
S31500003A3008D082F31088BDE8F883E06B8342F8D99A
S31500003A408142F6D3A84538BF0449C9F8004038BFBB
S31500003A5041F82340EDE700BF0809FE1F7008FE1F6E
S31500003A601009FE1F2DE9F041EFF3108472B682684B
S31500003A70002A56D07E49C36809688B42A44603D003
S31500003A807C4E316800294CD0013A8260002A43D12D
S31500003A90002B41D0D3F8A420013AC3F8A420002A71
S31500003AA044D1C3F8A82087690269002F00F08380FB
S31500003AB0012A0546D3F8988000F08580C3696D4ECB
S31500003AC0012B5ED9002F00F098800024D7F8A4209F
S31500003AD0002A68D1C7F8A850C5E90B550132013B49
S31500003AE00121C7F8A420EB61C5E90217002B54D1C8
S31500003AF0AB613368002201333360BA66C7F88420AD
S31500003B008CF310882B69012B00F09780384600F063
S31500003B1041FC0020BDE8F08184F310880020BDE858
S31500003B20F08184F310881E20BDE8F081D3F8A850F8
S31500003B30D0E90B2185421163CA62B4D1B1E72024D2
S31500003B40EFF3108C72B63268C3F8A040EB69A0455B
S31500003B5002F1FF3228BFA046012B326069D92A69DB
S31500003B60012A75D13368013333608CF310882846F7
S31500003B7000F0ACFFEFF3108C72B63368AF69013B0F
S31500003B803360002F39D02B69012B54D1FB6A6B614E
S31500003B902023AB62EC68EB6998E7D7E91C32AB618E
S31500003BA05A671367A5E7D7F8A810086B0D63C562B7
S31500003BB0C5E90B1092E7002A7FF47AAFC26084F35E
S31500003BC010881046ABE72B4E32680132326084F320
S31500003BD01088D3F8A8100029B1D00A46202401E0A5
S31500003BE0002AADD01069012803D1906A844228BF0B
S31500003BF00446D26A9142F3D1A2E7336801333360B7
S31500003C008CF31088E868C36A20224345AA6202D072
S31500003C104146FFF7C9FEEFF3108372B632680024FF
S31500003C20013A3260EC6083F3108800F095FB204681
S31500003C3075E7AF69A5E7EB6947E7EB6953B9E36A4F
S31500003C4043453FF463AF41462046FFF7ADFE5DE7CF
S31500003C50AF6937E7284600F039FFEFF3108272B6F6
S31500003C60AB690BB1DB6AAB6282F31088E7E700BF92
S31500003C700C09FE1F0809FE1F2DE9F041174688466C
S31500003C803822002104461E46069D01F0C8F8BB00F6
S31500003C90B5FBF3F505FB0363C4E90187E3616561E1
S31500003CA0E560A661C4E90866EFF3108072B60B4AB8
S31500003CB00B49136821600B4963B109684D6B4C636E
S31500003CC02C63C4E90C150133136080F310880020BF
S31500003CD0BDE8F081C4E90C440C60F4E74808FE1F17
S31500003CE0554555516808FE1F2DE9F843EFF3108638
S31500003CF072B60469C36A2CB38268002B51D1056A77
S31500003D00012A2B680B6005F104050CD9531E2F46BA
S31500003D1057F804CB41F804CF013BF9D102F18042B8
S31500003D20013A05EB8205C369AB42436908BF856961
S31500003D300562013C0133C0E9044386F31088002084
S31500003D40BDE8F883002A00F086805A4DD5F800C0F9
S31500003D50BCF1000F7FD1584CDFF860E12468D4F83D
S31500003D60B470E0660137C4E91F1CC4F868E0C4F803
S31500003D70B470002B74D18462C4E91C4429680133F1
S31500003D80C362013105200123E26429602063A36335
S31500003D9086F31088204600F073FBD4F88400BDE853
S31500003DA0F883D0F828C0DCE91F85012D08F104044A
S31500003DB05DD0076A012A3D680D6007F1040E0CD933
S31500003DC0551E774657F8049B41F8049F013DF9D1EB
S31500003DD002F1804101390EEB810E364DD8F8008094
S31500003DE02968D0F81C90476A013129602968F14595
S31500003DF008BFD0F818E0C0F820E00139012A296090
S31500003E00C7F8008007F104080BD9511E54F804EBDB
S31500003E1047F804EF0139F9D102F18042013A08EB83
S31500003E208208C14508BFD0F81880C0F82480013B3D
S31500003E3037D183622A68C362013200242A60CCF833
S31500003E406840CCF8844086F31088604600F0A2FAF9
S31500003E502046BDE8F88386F310880A20BDE8F8837B
S31500003E60816A21674F6F67673C674C6786E7D8F8BA
S31500003E7000500D60012A06D9013A54F8045B41F856
S31500003E80045F013AF9D1013B11D0DCE91C218262C1
S31500003E9051670A67074AC362136801330024136037
S31500003EA0CDE7DCE91C21826251670A67C2E78362BB
S31500003EB0F0E700BF0809FE1F0C09FE1F714B00004A
S31500003EC0F8B5EFF3108572B64469C36A24B3826805
S31500003ED051F8047B002B4FD10669436A013C013639
S31500003EE0012AC0E904641F6003F104070BD9541EBC
S31500003EF051F8046B43F8046F013CF9D102F1804399
S31500003F00013B07EB8307C369BB4208BF876947626A
S31500003F1085F310880020F8BD002A55D02F4ED6F81C
S31500003F2000C0BCF1000F4FD12D4CDFF8B8E024687B
S31500003F30D4F8B470E0660137C4E91F1CC4F868E021
S31500003F40C4F8B470002B45D0816A21674F6F67674C
S31500003F503C674C6731680133C36201310520012398
S31500003F60E26431602063A36385F31088204600F085
S31500003F7087FAD4F88400F8BD013B866A28D0D6E9D2
S31500003F801C4C8462C4F874C0CCF87040F46FC362F1
S31500003F90012A4FF00003B366276007D9531E224655
S31500003FA051F8044B42F8044F013BF9D10B4A136810
S31500003FB0002401331360C6F8844085F31088304628
S31500003FC000F0E8F92046F8BD85F310880B20F8BD0F
S31500003FD08362DBE78462C4E91C44BBE70809FE1F71
S31500003FE00C09FE1F714B0000002330B4C0E901121A
S31500003FF00360C360036143618361EFF3108472B6AB
S315000040000B4A0C49136801600B4963B109688D6955
S3150000401088616861C0E905150133136084F310886F
S31500004020002030BC7047C0E905000860F4E700BF17
S315000040305C08FE1F414D45534C08FE1FF8B5EFF3D3
S31500004040108272B683685BBB31B31A4D2B681BBBFB
S31500004050194B1A4F1C680369D4F8B460E066013640
S31500004060A766C4F8B4600BB3C6682667776F676740
S315000040703C6774672E68013303610136062001230D
S31500004080E1642E602063A36382F31088204600F06B
S31500004090F7F9D4F88400F8BD82F310880D20F8BD36
S315000040A0013B836082F310880020F8BDC460C4E938
S315000040B01C44DFE70809FE1F0C09FE1FFD4B00002C
S315000040C038B5EFF3108472B60269D2B1013AC1680D
S315000040D015D0D1E91C35C3605D672B6703460C48D4
S315000040E01A6103680022013303608A66C1F88420DE
S315000040F084F31088084600F04DF9002038BDC260F0
S31500004100ECE783680133836084F31088002038BDB0
S315000041100809FE1F2DE9F84FDDE90A9704468B468C
S315000041209246EF213A4648460C9D0E9E984600F070
S3150000413076FEB8220021204600F071FE0D9BC4F8E1
S3150000414028B07A1E4A4420219D42C4E911A8C4F829
S315000041500C90C4E90427E562C4F89850C4E90666E1
S31500004160C4F8A0105BD00023E363C4F89C3003229C
S315000041702E4BA465226363652D49204600F0C0FBE3
S31500004180EFF3108572B62B482B4A036822602B4A40
S31500004190DBB9C4E922441460294901330A68036083
S315000041A00F9B0132012B0A602AD1EFF30583254AC2
S315000041B012681343B3F1F03F11D285F310882046FD
S315000041C000F0E8F80020BDE8F88F1268D2F88C10ED
S315000041D0C2F88C40C1F88840C4E92221DCE71A4BBA
S315000041E01E6806B3F36AF76BF36385F310882046FF
S315000041F000F0D0F8002EE5D0F7630020BDE8F88F78
S3150000420085F31088EFF3108372B60A68013A0A60E4
S3150000421083F3108800F0A0F80020BDE8F88FE5636E
S31500004220C4F89C50A3E73746DFE700BF854500008A
S31500004230B14200000009FE1F44524854F808FE1F10
S315000042400809FE1F0000FE1F1009FE1F38B50E49A3
S315000042500E4D0F4A0F4B104800240C602C6021466F
S315000042602025146080221D6000F0D9FD0B4A0C4900
S3150000427013680C600B4D0C480C492C6043F0C57359
S3150000428004600C60136038BD0C09FE1F1009FE1F88
S31500004290F408FE1F1409FE1F7008FE1FFC08FE1F0F
S315000042A0F808FE1F0009FE1F0809FE1FF008FE1F82
S315000042B038B50E4B1C68D4E9113098470C4B1B6877
S315000042C00BB120469847EFF3108372B6094802688F
S315000042D0012100250132E56402602163A16383F3B5
S315000042E010882046BDE8384000F0CAB80C09FE1F09
S315000042F0F008FE1F0809FE1F38B5EFF3108272B6EC
S31500004300124B1C68DCB1EFF30583114909680B43B6
S3150000431015D1C0B10F4B196889B91D68C4F884104E
S31500004320E064691C0120042519602563A06382F3FB
S315000043301088204600F0A4F8D4F8840038BD82F333
S315000043401088132038BD82F3108838BD0C09FE1F73
S315000043500000FE1F0809FE1F0A4B1B688BB90A4A9C
S315000043600A4B12681B689A420BD0094B4FF08052D9
S315000043705A60EFF3058323B9EFF3108362B683F334
S31500004380108870470809FE1F0C09FE1F1009FE1F42
S3150000439000ED00E0F8B50446EFF3108572B6436E03
S315000043A0002B3ED04C3000F071F92E4AA06B1368FA
S315000043B0216B013B1360B8B9F9B92B492B4B1B682C
S315000043C085F31088096899420DD013685BB9284BAC
S315000043D04FF080525A60EFF3058323B9EFF3108351
S315000043E062B683F31088F8BD01390129E5D9636BFC
S315000043F093B91D49A3632363E0E7636B63B9E06A7E
S315000044001C49236351F820306BB1586A164904627F
S315000044105C62C4E90830D1E703230021C4E90C310A
S31500004420CBE7C364C1E7144E41F820403368134F0D
S31500004430012181400B43396833608142C4E9084455
S315000044400949BBD90B6838604BB1DB6B8342B5D9E0
S315000044500C6085F310881368002BB8D0F8BD0C608B
S31500004460ACE700BF0809FE1F1009FE1F0C09FE1F5E
S3150000447000ED00E07008FE1FF408FE1F1409FE1F81
S31500004480F8B5384B04461D68EFF3108672B68542C0
S315000044903BD0354AA16B1368012903F1FF33136042
S315000044A014D0324B86F310881B68AB420DD01368CC
S315000044B05BB92F4B4FF080525A60EFF3058323B957
S315000044C0EFF3108362B683F31088F8BD236AE06ABF
S315000044D04FF0000C9C42C4F838C025D0254F616AC5
S315000044E057F820C05962A4450B621AD01F4B1968B1
S315000044F0A142D7D12049096857F82110196086F3DF
S3150000450010881368002BD4D0F8BDEB6C013B033345
S3150000451003D805F14C0000F08FF8184BE2691A60D9
S31500004520B7E747F82030E1E7154B124F814047F8CF
S3150000453020C0186820EA0101196051B90E480B4BDA
S3150000454020240460196086F310881368002BB0D00D
S31500004550F8BD4B420B40B3FA83F30749C3F11F037F
S315000045600B60C3E70C09FE1F0809FE1F1009FE1F9A
S3150000457000ED00E07008FE1F1409FE1FA009FE1FD3
S31500004580F408FE1F10B4EFF3108472B6026B042A0F
S3150000459008D0826ED0F8B41084F3108862B15DF84A
S315000045A0044B1047064A13680133136084F31088DE
S315000045B05DF8044BFFF7EEBE5DF8044B704700BF95
S315000045C00809FE1F70B5104D104B1149114A124EC5
S315000045D000242C60114D0C60184621461460802280
S315000045E02C60346000F01BFC0D490E4A0E4D03464C
S315000045F00B6013600D480E490E4A2C608033036031
S315000046000C60146070BD00BFA009FE1F1C09FE1FD0
S31500004610BC09FE1F9C09FE1FC009FE1FAC09FE1F38
S31500004620B009FE1F1809FE1FA809FE1FA409FE1FD8
S31500004630B409FE1FB809FE1F0268531ED91C01D813
S31500004640816901B17047202A0D4A0E49126809682E
S3150000465094BF9B007C231344994203D80A4A1268EC
S315000046605B1A13441A6832B1516908615061C0E996
S31500004670042183617047C0E904001860F9E700BFB0
S315000046801809FE1FA409FE1FB009FE1F836963B146
S31500004690026990420AD0416951610A6119688142F2
S315000046A004BF93611A600023836170471A688242CF
S315000046B0F9D100221A60F6E710B472B6184A194BFF
S315000046C019491468194A1A600A681948194B04608E
S315000046D042F001020A6018481B68A0FB03235B092D
S315000046E0013BB3F1807F09D2144A15485360F02488
S315000046F00021072380F8234091601360104BF022BD
S315000047000021DA7783F8222083F82310EFF3148C44
S315000047102CF0040C8CF314885DF8044B704700BF32
S31500004720000000005408FE1F001000E0CC31FE1F00
S315000047300409FE1F9001FE1F1F85EB5110E000E0EB
S3150000474000ED00E0104B114C114812490022226086
S315000047509A809A821A801A829860D9609861D96183
S31500004760EFF3088282F309880B48B0F82021012173
S3150000477042F48052A0F820219980998262B6074BB4
S315000047804FF080525A60FEE7000D00400809FE1FF8
S31500004790C819FE1FC721FE1F0060004000ED00E0A3
S315000047A0F0B4234A234D244C2449254E4AF202579D
S315000047B01EE09389DB0B0B600B68012B0FD1B2F85F
S315000047C0FE339BB23360A2F8FE73938960F3CF3356
S315000047D09381336843F425439BB2A2F8FE33BFF3BB
S315000047E04F8F30BFBFF36F8F62B60B68012B0BD0B4
S315000047F072B62B68236020680028DAD0114B4FF080
S3150000480000625A60F0BC704772B6B2F8FE339BB2D3
S315000048103360A2F8FE73938943F4004393813368AF
S3150000482043F425439BB2A2F8FE3362B6E0E700BF2D
S3150000483000E001401009FE1F0C09FE1FC004FE1F08
S31500004840BC04FE1F00ED00E027480168002947D0A0
S31500004850EFF30983A3F1200383F3098803F120030F
S3150000486023E9F00F1EF0100F07D1A3F1400383F3E5
S31500004870098803F1400323ED108A8B601B4D2D68D8
S3150000488041F805E01A4C236813B18B6100232360BD
S31500004890184E72B633680BB1036001E0FFF780FF74
S315000048A0366862B6706801307060B0692060124880
S315000048B04FF000014161F16881613169C161B368FE
S315000048C056F805E01EF0100F01D1B3EC108AB3E8DC
S315000048D0F00F83F309884FF0010141617047FEE74D
S315000048E0034C024D2D68D3E70C09FE1F045A000045
S315000048F0A009FE1F1009FE1F000D004000F024B89D
S315000049000269A2F1400222F007024FF00003136091
S3150000491053609360D36013615361C36893614FF032
S315000049200003D361136253629362D36213634FF041
S31500004930FF33536391634FF08073D36382606FF0EC
S315000049400203C0F890307047244925480A68036876
S31500004950013210B50A6013B1013B0360DBB1214A95
S31500004960214C136821681868F8B1204B01221A609F
S3150000497000F0BEF923681BBB1D4B1B6853B11D4AD3
S315000049801268934206D01C4B1B681BB91B4B4FF099
S3150000499080525A6010BD134A134C136818680121DF
S315000049A0216010B1114B1960E2E715480068043325
S315000049B0834213600AD00D4B1B6821B1002BD7D15F
S315000049C000F05CF9D8E7002BD6D0D1E70D48074BAD
S315000049D000681B6810600029F0D1F4E7C009FE1FCB
S315000049E0A009FE1F1809FE1FBC09FE1F9C09FE1F19
S315000049F01009FE1F0C09FE1F0809FE1F00ED00E04E
S31500004A00A409FE1FB009FE1F38B5EFF3108372B676
S31500004A101A4A846E944202D083F3108838BDD0F8C7
S31500004A20B4208A42F8D1C26E002AF5D0144914681F
S31500004A308C42F1D1D1690029EED001390024846677
S31500004A40D161C1B19569D0E91C1485424C672167D3
S31500004A5011D0026B0D2ADFD10A490A681D240132E2
S31500004A600A60C0F8844083F31088FFF793FCEFF3E5
S31500004A70108372B6D0E79161EBE700BF094A0000E8
S31500004A804554554D0809FE1F70B50446EFF31083D3
S31500004A9072B60D4DD0F8A8002A6801322A600126A8
S31500004AA058B1866083F31088FEF7DCFFEFF31083BE
S31500004AB072B6D4F8A8000028F2D12A68013A2A6012
S31500004AC083F3108870BD00BF0809FE1FF8B5EFF329
S31500004AD0108472B6C769012F29D98269116FD56A08
S31500004AE0CE6A022F20D0DFF884E0DEF800300133F2
S31500004AF0CEF80030944607E0C769196F1A468B4214
S31500004B0019D0CE6AD56A9C46B54288BF0A4684F358
S31500004B101088EFF3108472B683696345ECD1C569DA
S31500004B20BD4220D02F46E8E7AE4238BF816184F30C
S31500004B3010880020F8BDDEF80010934201F1FF3125
S31500004B40CEF8001009D0D2E91C657567596F2E673B
S31500004B50C2E91C310A675A67826184F31088FFF73D
S31500004B60FBFB0020F8BD096FC9E700BF0809FE1F5F
S31500004B7038B5EFF3108372B61D4A846E944202D0A4
S31500004B8083F3108838BDD0F8B4208A42F8D1C26EBB
S31500004B90002AF5D0174914688C42F1D1D16A002950
S31500004BA0EED0013900248466D162D1B1956AD0E98C
S31500004BB01C1485424C67216713D0016B0529DFD190
S31500004BC0126982B10B22C0F884200B490A680132AF
S31500004BD00A6083F31088FFF7DDFBEFF3108372B6EC
S31500004BE0CEE79162E9E70A22C0F88420EDE700BF2C
S31500004BF0714B0000554555510809FE1F38B5EFF3B6
S31500004C00108372B61A4A846E944202D083F31088D7
S31500004C1038BDD0F8B4208A42F8D1C26E002AF5D049
S31500004C20144914688C42F1D111690029EED001397A
S31500004C30002484661161C1B1D568D0E91C1485428F
S31500004C404C67216711D0026B062ADFD10A490A6830
S31500004C500D2401320A60C0F8844083F31088FFF700
S31500004C6099FBEFF3108372B6D0E7D160EBE700BF94
S31500004C70FD4B0000414D45530809FE1F164B1B68AE
S31500004C80EFF3108272B615490020086093B1196BD4
S31500004C9081B9D3E9071010B4114C9961984221608B
S31500004CA003D0D96ADB6B994207D082F310885DF88E
S31500004CB0044B704782F3108870470A4B0A4C43F83E
S31500004CC021002068094953F820300B6082F31088D0
S31500004CD05DF8044B704700BF0C09FE1FBC09FE1FA0
S31500004CE0A009FE1F7008FE1F1409FE1F1009FE1FF3
S31500004CF02DE9F04F83B0EFF3108A72B6DFF8E88043
S31500004D00D8F80070002F4BD1344E3168002947D0B7
S31500004D100121DFF8D8B0DFF8D890314DC8F800107F
S31500004D20DBF800301968009109B1C1F818D0D9F83C
S31500004D30001043F8047B8B42CBF8003049D0376033
S31500004D408AF31088EFF3108A72B6009C1CB32369AD
S31500004D5001979C4239D06169596100930B61C3F890
S31500004D6018D02368202B20D9203B01A92360246179
S31500004D7001942C60A1618AF31088EFF3108A72B651
S31500004D80019B2F60A342E0D1A7612046FFF754FCA8
S31500004D90009C002CDBD13368002BC1D1C8F8003051
S31500004DA08AF3108803B0BDE8F08F61682160D4E90A
S31500004DB0023061B101A924610194A1612C608AF3DA
S31500004DC01088002BD9D09847D7E70097C9E7A1618B
S31500004DD0F4E7044B1B68CBF80030B0E79C09FE1FD4
S31500004DE0AC09FE1FB009FE1FA809FE1F1809FE1F09
S31500004DF0A409FE1F014B1868704700BF0400FE1F80
S31500004E0030B50024A24201D1002007E0035D013441
S31500004E100D1915F8015CAB42F4D0581B30BD0244A5
S31500004E200346934200D1704703F8011BF9E7FFFFE1
S31500004E3038B50D4B1C68A36B05467BB9182000F0EE
S31500004E401BF80A4A0A4BA063C0E90023094B83609A
S31500004E500B23838101220023C0E90423A36B0022D4
S31500004E601D615A6138BD00BF0400FE1F0E33CDAB75
S31500004E7034126DE6ECDE0500024B0146186800F0C0
S31500004E8003B800BF0400FE1F70B5CD1C25F0030556
S31500004E9008350C2D38BF0C25002D064601DBA9422E
S31500004EA003D90C233360002070BD00F057F8214A67
S31500004EB01468214691B9204C23681BB9304600F08E
S31500004EC03DF820602946304600F038F8431C24D1CE
S31500004ED00C233360304600F042F8E4E70B685B1BB6
S31500004EE018D40B2B0FD90B60CD50CC18304600F0E0
S31500004EF036F804F10B00231D20F00700C31AD3D0A7
S31500004F005A42E250D0E78C424B6816BF636013608A
S31500004F100C46EBE70C464968CCE7C41C24F00304B6
S31500004F20A04205D0211A304600F008F80130CFD053
S31500004F302560DBE7C404FE1FC804FE1F38B5064C17
S31500004F400023054608462360FDF7DEFD431C02D11B
S31500004F50236803B12B6038BDC409FE1F7047704734
S31500004F604275696C7420776974682052656E657342
S31500004F7061732053796E657267792028544D292014
S31500004F80536F667477617265205061636B61676504
S31500004F902076657273696F6E20312E372E382B623C
S31500004FA075696C642E323130366265316131636207
S31500004FB034000000312E372E3800000000080701AB
S31500004FC0F8B500BFF8BC08BC9E467047F8B500BFF0
S31500004FD0F8BC08BC9E467047D10B0000C10B000010
S31500004FE0590C0000D90800008D07000019080000C0
S31500004FF0AD0A0000F106000085080000E109000086
S3150000500065070000E10700003D070000A909000050
S3150000501071080000020403040404FFFF00010102FA
S315000050200102020301020203020303040102020356
S31500005030020303040203030403040405010202033A
S315000050400203030402030304030404050203030426
S31500005050030404050304040504050506010202030E
S315000050600203030402030304030404050203030406
S3150000507003040405030404050405050602030304EA
S3150000508003040405030404050405050603040405D6
S3150000509004050506040505060506060700010307BF
S315000050A00F1F3F7F690D0000250D0000D50D000084
S315000050B0990E0000150E0000550D000008010401B0
S315000050C07111000041110000DD100000F110000018
S315000050D005110000191100002D1100000401030143
S315000050E0FD1800009D220000391D0000DD1900009A
S315000050F0E5200000F9170000E1120000311B000056
S315000051009D160000D91300003D1400006514000030
S315000051108D14000041160000B5140000DD140000D7
S31500005120ED110000F1110000ED170000E917000075
S31500005130F1170000F5170000051500002D150000F9
S315000051405515000035160000F51100000F01040189
S315000051500000010000000200010002000400FFFF41
S31500005160000001000200FFFF010002000300FFFF34
S3150000517040420F000000000040420F000000000007
S315000051800400000002000000002D310100366E010F
S3150000519030040201020A1E00D0FE010002000310C4
S315000051A0040000001C00000013000000030E0010A5
S315000051B0FFFFFFFFFFFFFFFFFFFFFFFFFFFFFFFFF9
S315000051C052374653374732374833413031434643E7
S315000051D05753313434314131303000000000000083
S315000051E002B06400F000000001000810F3E0BFB652
S315000051F0057933498B43F24F1693A05D1E7A1DD86D
S31500005200700D7A8242786A5EC35C0B1904005011F5
S3150000521000000040FFFF0008FFC110081FFF1B052C
S315000052207F0028073F002F063E8047804C806A009B
S3150000523064806B00820056806E00BD80B080830063
S315000052406F005B807000720071007300740075005F
S315000052508A8086808D80CF8076006C006D00B58058
S315000052607B007A007C00A08077007800790090802F
S315000052709A80978084009D80A3807D00D580D88009
S31500005280A6808500AD80A980DE807E007F0080003C
S31500005290810000000607021000000000FFFF00006A
S315000052A0002000000001000000000100FFFF3F0099
S315000052B000800000000100000607011000001040F9
S315000052C0FFFF104040000000040000000A00041028
S315000052D0070B0B0F0000FE1FFFFFFF1F0000002043
S315000052E0FFFF032000000420FFFF072000E00F203F
S315000052F0FFFF0F200107001008004000005000408B
S315000053000803011000520040015F00100100000C6C
S3150000531000000040011F001001000001000C0040C9
S315000053200003001001000001000D004001070010FD
S315000053300100000100E07F400003001001001000A2
S3150000534000C07F40E0010310B0010310C00103104C
S31500005350200003105400031030000F1070040310D7
S31500005360000807101000031046040310410503103F
S3150000537040070310000C03104004071042040310FA
S3150000538044040310D0050310E0050B10F0050310CC
S315000053900F07071040090310000E0711400E0310F7
S315000053A0600E03106000071010040310B00707100A
S315000053B080040310020000100300000100300540C5
S315000053C007030300000F00100A002000000007403A
S315000053D0000F00100200000100200740020000102C
S315000053E00E000001008007403F1F1F1F0F0F0F0F09
S315000053F00707070707070000000300100100100059
S31500005400F08F074000030010040000010020044054
S3150000541000030010020000010040084000070010D1
S3150000542006000001005008400007001002000010AE
S31500005430000005400007001002000004002006409E
S3150000544002000010020000020040064007070000AC
S31500005450000700110200000100E0044001030010F3
S31500005460C00004000008044008030110000D0440B9
S31500005470040002100200000200C005402B2B0000B1
S315000054807F007F003F000F007F006F001F000F00AE
S31500005490040001100C00200000000440070B0B0B59
S315000054A00B03030303030303FFCFFFC7FFFFFFFF46
S315000054B0FF30FF30FFFFFFFFFFFFFFFFFFFFFF385B
S315000054C0FFFFFFFFFFFFFF00FF3F7F00FFFFE3013E
S315000054D0FFFF0307FF000300040002100100200085
S315000054E00010084003000000FFFFFF0F030000004C
S315000054F00003001001000002000000640117001004
S315000055000100001000000940001F002001000002F9
S31500005510000006400103001001000001004406409F
S3150000552001030010010000010045064001030010C0
S3150000553001000008005006400003001002000004AD
S3150000554000580640FFFFFFFFFFFFFFFFFFFFFFFFC3
S31500005550FFFFFFFFFFFFFFFFFFFFFFFFFFFFFFFF55
S31500005560FFFFFFFFFFFFFFFFFFFFFFFFFFFFFFFF45
S31500005570FFFFFFFFFFFFFFFFFFFFFFFFFFFFFFFF35
S31500005580FFFFFFFFFFFFFFFFFFFFFFFFFFFFFFFF25
S31500005590FFFFFFFFFFFFFFFF725ABC9EFFFFFFFFEB
S315000055A0FFFFFF3636FFFF8EFFFFFFFFFF808D8177
S315000055B05F4953839FFFFFFFFFFFFFFFD0F4D6FF36
S315000055C0DCFFFFFFFFFFFFE5EEFFFFC34245466B33
S315000055D08C8988FFFFFFFFFFFFFFFFFF4F6D82846F
S315000055E08685FFFF1CE00140007004400470044003
S315000055F00870044000050000010002000800FFFFDB
S315000056000100000000000000000000000300000090
S3150000561014560000000601060206FFFF4E657720BD
S315000056204D757465780000004E6577205175657577
S3150000563065000000426C696E6B7920546872656182
S315000056406400FFFF00000000D84F000053535020B5
S31500005650436F6D6D6F6E20496E69742053656D00E2
S315000056607000000068560000008000000000000086
S315000056700080000001000000008000000200000021
S31500005680004000000400000000400000050000008B
S315000056900040000006000000008000000800000036
S315000056A00080000009000000004000000A00000021
S315000056B0008000000E000000008000000F000000C7
S315000056C000040106000100000004010601010000BB
S315000056D000040106020100000004010603010000A7
S315000056E00004010404010000000401040501000097
S315000056F0000C01040601000004040000070100007C
S31500005700000001000801000000000100090100007E
S31500005710000001000A010000004000000B0100002B
S31500005720000000000C010000040400000D01000050
S31500005730000C010402020000000000000302000049
S315000057400000010C040200000000010C050200002C
S315000057500000010C060200000000010C0702000018
S31500005760000001090C020000000001090D02000002
S315000057700000010000030000000401040103000012
S3150000578000040104020300000000000003030000FF
S3150000579000040104040300000004010405030000E2
S315000057A0000C0104060300000404000007030000C7
S315000057B000000000080300000404000009030000C4
S315000057C0000000000A030000000000000B030000B8
S315000057D0000000000C030000000401190D03000086
S315000057E0000401190E030000000401190F03000054
S315000057F00040000000040000000001100104000049
S315000058000000011002040000000401170304000058
S315000058100004011704040000000C01170504000031
S31500005820000C011706040000000001130704000025
S315000058300000010C080400000000010C090400002F
S31500005840000401040A040000000401040B04000023
S31500005850000C01040C040000040400000D04000008
S315000058600000010C0E0400000000010C0F040000F3
S31500005870000C011100050000000C011101050000DB
S31500005880000C011102050000000C011103050000C7
